:020000040000FA
:0600000002011A02230DAB
:030013000229A817
:03002B0002297F28
:03003B00022A0E88
:0300530002238302
:03007B00022A63F3
:10008300022163E5C754F84401F5C7790122000052
:100093000080FB120086B90003020104E479217891
:1000A30008B800028004F709D8FCE479297802B87B
:1000B30000028004F709D8FCE490028178BF791824
:1000C3008002F0A3D8FCD9FA781A90014A7A01BACF
:1000D30000028007E493A3F608DAF97A3F7B1A90CB
:1000E300014B785379058015E493A3AD82AE838ADF
:1000F300828B83F0A3AA82AB838D828E83D8E9D9C6
:10010300E775828C75837F740012012C758291755B
:100113008300740012012C75D00075814F7518810E
:10012300751902759F00020096C09FF59FE473D076
:100133009F22D083D082C09FE493C0E0740193C018
:10014300E0740293F59F2201FF0000B40000280031
:100153002800283075A000A000A000A0000008001F
:1001630008E001F000100010001000100010001053
:100173000050005000500010001000D00700000095
:100183000000000F0001000500307507001000019A
:100193000081FF00000000FFFFFFBF07DD07C50769
:1001A3000108FF02020208025000A0000000E80359
:1001B30002BE8F010000D58E02A28F0100009A1AA1
:1001C300029C8F010000BF0202A28F0100009B1A54
:1001D30002D68F010000D50202A28F0100009C1AF3
:1001E30002968F010000D70202A28F0100009D1A20
:1001F30002988F080000D80202A28F0100009E1A05
:10020300029A8F0100009F1AFF0100FF1700A90E39
:10021300A90EA90EA90EA90EA90EA90EA90EA90E23
:10022300A90EA90EA90EA90E9111A3118B1101E814
:10023300030577100A0AFF12FFFFFF000130750361
:1002430002010600000000000000000000000000A2
:10025300000000000000000000000000000000FF9C
:10026300FF0600800CE8030201050C09504D4420F1
:1002730052322D3030303000000000000000000CFE
:1002830009504D442052322D3030303000000000F0
:100293000000004F4C503432352D303030300000E8
:1002A30000000000000000004F4C503432352D3068
:1002B30030303000000000000000000000DB1500BB
:1002C30000C915CF15F9150A4669726D7761726514
:1002D3000052656E616D65004669727374204E61EC
:1002E3006D65005375726E616D650047656E64657B
:1002F300720044617465206F6620426972746800FD
:1003030044617465206F662041646D697373696F1E
:100313006E00426564204E756D62657200526F6FA8
:100323006D204E616D652F4E756D6265720057616C
:100333007264204E616D652F4E756D6265720002A9
:10034300BE8F010000938F02A28F010000BE1B022B
:10035300A88F030000511002A08F010000BF1B02F1
:10036300A28F010000BE1B02AA8F030000551002DA
:10037300A08F010000C81B02A28F010000BE1B0258
:10038300AC8F030000691002A08F010000CF1B0295
:10039300A28F010000BE1B02AE8F0300007D10027E
:1003A300A08F010000DA1B02A28F010000BE1B0216
:1003B300B08F030000911002A08F010000E21B0226
:1003C300A28F010000BE1B02B28F03000092100235
:1003D300A08F010000E91B02A28F010000BE1B02D7
:1003E300B48F030000951002A08F010000F71B02D9
:1003F300A28F010000BE1B02B68F030000981002FB
:10040300A08F010000091C02A28F010000BE1B0285
:10041300B88F030000991002A08F010000141C0282
:10042300A28F010000BE1B02BA8F030000AD1002B1
:10043300A08F010000251C0A124C6174657374209F
:1004430044617461005468726573686F6C6473000F
:1004530053696C656E636520416C61726D004D611B
:10046300696E74656E616E6365005472656E6420B7
:1004730052522044617461005472656E642041637A
:10048300742F506F732044617461005374726561FB
:100493006D696E670053747265616D696E672043A1
:1004A3006F6E666967004572726F7220436F646591
:1004B300730002BE8F010000908F02A28F01000023
:1004C3002E1D02C48F030000F51902A08F01000046
:1004D300301D02A28F0100002E1D02C68F030000F3
:1004E300FD1902A08F0100003C1D02A28F01000034
:1004F3002E1D02C88F030000FF1902A08F01000008
:10050300471D02A28F0100002E1D02CA8F030000A7
:10051300001A02A08F010000551D02A28F010000E6
:100523002E1D02CC8F030000011A02A08F010000D0
:10053300611D02A28F0100002E1D02CE8F03000059
:10054300151A02A08F0100006F1D02A28F01000087
:100553002F1D02D08F030000291A029E8F03000073
:100563003B1A02A08F010000821D02A28F0100002E
:100573002E1D02D28F030000371A02A08F01000044
:100583008C1D02A28F0100002E1D02D48F030000D8
:10059300381A02A08F0100009D1D1201353F9D03F3
:1005A300120135529D03120135839D03120135BD9E
:1005B3009D03120135169E031201355D9E03120140
:1005C30035A59E03120135D49E03120135039F0303
:1005D3001201353A9F03120135819F031201359AA7
:1005E3009F03120135EF9F0312013508A003120187
:1005F3003556A00312013590A003120135D7B90275
:10060300120135DABA0212013513BB021201353673
:10061300BB0212013548BB0212013586BB0212012F
:100623003502BC02120135CABC02120135ECBC0210
:1006330012013583BD02120135D5BD021201350603
:10064300BE0212013513BE021201357DBE02120134
:1006530035D4BE02120135D7BE0212013510BF02D6
:1006630012013513BF021201351DBF02120135718C
:10067300BF02120135B2BF02120135E5BF021201FA
:100683003522C00212013524C102120135C8C1024C
:1006930012013531C2021201356FC2021201358BCC
:1006A3009103120135B39103120135E09103120155
:1006B30035189203120135769203120135C2920363
:1006C300120135299303120135699303120135A6EB
:1006D3009303120135D493031201357E940312015F
:1006E30035889403120135959403120135C8940398
:1006F300120135D49403120135EC9403120135F63B
:10070300940312013513B70312013521B703120104
:100713003539B70312013550B70312013519C80132
:10072300120135C3C801120135D6C9011201355270
:10073300CA0112013570CB01120135ACCB01120194
:100743003547CC011201352BCD01120135F7CD010F
:1007530012013585CF01120135F6CF01120135B0F3
:10076300D001120135A2D101120135E2D1011201EA
:100773003596D201120135C8D201120135BED4011A
:1007830012013500D5011201351ED5011201358440
:10079300D50112013553D60112013517D7011201C4
:1007A3003536D90112013598D20212013582D302AE
:1007B3001201352DD4021201357ED4021201352ED9
:1007C300D5021201359FD50212013584D6021201DA
:1007D30035B8D602120135B1D702120135EED70270
:1007E300120135CAD80212013509D9021201352581
:1007F300D9021201353EAA03120135C2AA0312011E
:1008030035EDAA0312013507AC03120135849503B4
:100813001201359A9503120135B89503120135C9B2
:100823009603120135D39603120135FE9703120185
:1008330035F5980312013562990312013529A60390
:1008430012013559A703120135D3A703120135E667
:10085300A70312013531A301120135BDA301120112
:100863003521A5011201352DA50112013568A50118
:10087300120135D7A501120135E0A601120135E9B0
:10088300A701120135B0A8011201350DAA01120109
:10089300352BAA0112013548AA01120135F5AA0127
:1008A30012013572AB011201359AAB0112013564A5
:1008B300AE0112013569AE0112013582B001120198
:1008C30035D0B00112013540B1011201357EB101BD
:1008D3001201355AB2011201351AB30112013566FC
:1008E300B30112013569B301120135ADB301120130
:1008F30035F5B30112013534B40112013556B40193
:100903001201358AB401120135EDB401120135C863
:10091300E502120135D6E50212013529E60212017C
:100923003548E6021201358DE602120135D1E702A0
:100933001201356CE802120135B0E802120135DA12
:10094300E80212013549E9021201358FE902120169
:100953003506EA02120135B7EA02120135982A0078
:10096300120135A82A00120135492B00120135A5C1
:100973002B00120135622C00120135832D00120168
:1009830035B22D001201355F2F00120135D631002B
:100993001201354634001201353835001201353164
:1009A30036001201353838001201352C3B00120194
:1009B300355B3C001201355F3E001201356F3F008D
:1009C300120135FE4000120135EF41001201353DA1
:1009D3004200120135AC4200120135D0420012012F
:1009E30035714700120135724800120135D34800B2
:1009F300120135FE4800120135C449001201353C8D
:100A0300F40212013546F4021201358BF40212018D
:100A1300359FF4021201352FF50212013568F502F4
:100A2300120135A3F502120135CCF502120135206E
:100A3300F60212013535F60212013557F60212019C
:100A4300356CF60212013580F60212013595F60275
:100A5300120135CFF602120135FBF60212013529D8
:100A6300F70212013574F70212013514F80212016C
:100A73003557F80212013581F802120135ACF8023C
:100A83001201352CB30312013551A602120135347C
:100A9300A702120135AFA702120135EAA70212011C
:100AA300353BA902120135C9A9021201355BAC021B
:100AB3001201350DAD0212013519AE021201358C4A
:100AC300AF02120135E5AF02120135F988031201B5
:100AD300353C8903120135C08903120135978C0314
:100AE300120135B7A30312013569A4031201356559
:100AF300A503120135A4A503120135FEA5031201B6
:100B0300350AAE031201356DAE031201350AAF0388
:100B13001201353FAF031201356FAF03120135AA3E
:100B2300AF03120135CAAF0312013588EF02120178
:100B33003514F002120135D3F002120135EBF10244
:100B430012013505F402120135CD9A02120135F274
:100B53009A02120135BF9B02120135939C021201C6
:100B630035009D02120135409D02120135DC9D02C4
:100B7300120135109F02120135EB9F021201354A13
:100B8300A002120135D6A00212013544A1021201BE
:100B930035D0A10212013516A20212013588A20234
:100BA3001201351AA302120135BBA302120135DB70
:100BB300A30212013523A4021201356CA40212010F
:100BC3003588A402120135AEA40212013528A5020C
:100BD30012013536A502120135C5A5021201352EC3
:100BE300A602120135D4F80212013559F902120195
:100BF300359BF9021201357FFA02120135ECFA0234
:100C030012013530FB0212013574FB02120135A1CA
:100C1300FB02120135C9FB0212013501FC0212016C
:100C2300353FFC0212013566FC02120135E0FC027D
:100C33001201352AFD02120135D98F0112013581C6
:100C43009101120135AE9301120135029401120193
:100C5300352D9401120135FF94011201354395019D
:100C63001201358795011201359A9501120135DB81
:100C730095011201350896011201355696011201AC
:100C830035979601120135C5960112013518970162
:100C9300120135AF9701120135999A01120135AF4F
:100CA3009C01120135ED9C01120135809E01120158
:100CB30035C59E01120135379F01120135889F0109
:100CC300120135C29F01120135C79F01120135740C
:100CD300A001120135C7A101120135FDA2011201C4
:100CE300350EA3011201350BF6011201358AF60107
:100CF30012013583FC0112013589FD01120135FC16
:100D0300FE0112013593FF0112013510600012013B
:100D130035596000120135866000120135B8600054
:100D2300120135C56000120135D16000120135E3AF
:100D33006000120135BE61001201351C6200120110
:100D430035516200120135886300120135D5630005
:100D5300120135F963001201356964001201352A65
:100D63006500120135ED65001201355B6600120165
:100D7300351867001201352B6700120135A967008A
:100D83001201353C6800120135636800120135CB4E
:100D930068001201351C69001201357169001201E6
:100DA300351A6A00120135C56A00120135716B00EC
:100DB300120135E36B00120135376C0012013597D0
:100DC3006C00120135C76C001201355D6D00120114
:100DD30035826E00120135CA6E00120135E76E00CE
:100DE300120135066F00120135356F001201354AC5
:100DF3007000120135D07000120135F57000120138
:100E0300350A71001201357D7100120135BE710082
:100E1300120135DA72001201357B7300120135C9F4
:100E230073001201353374001201354C7400120142
:100E3300358EB002120135E2B002120135EEB00276
:100E4300120135B8B102120135E5B10212013513B1
:100E5300B2021201357FB202120135B5B20212019C
:100E630035EEB20212013506B3021201355BB3024D
:100E730012013574B302120135B9B302120135CC34
:100E8300B302120135E6B302120135FCB3021201BB
:100E9300351AB50212013545B6021201352FB702D4
:100EA3001201351EB802120135ED7F00120135889B
:100EB3008D02120135B78D021201357D91021201A7
:100EC30035D492021201359A930212013519950213
:100ED300120135E395021201353596021201354FA1
:100EE30096021201358196021201358C9602120187
:100EF30035D59602120135DE96021201358A970224
:100F0300120135639802120135AA980212013512B3
:100F13009902120135549902120135829902120184
:100F230035BD9902120135C5B50112013543B90129
:100F330012013549B9011201359EBF01120135E88D
:100F4300C301120135CEC7011201356C9903120199
:100F530035E29903120135F89903120135889A0392
:100F6300120135C59A03120135FF9A03120135396F
:100F73009B03120135AC9B03120135ED9B03120158
:100F830035F69B03120135029C03120135219C03A4
:100F93001201354B9C03120135609C031201358805
:100FA3009C03120135EA9C03120135119D031201C2
:100FB30035C9EA02120135DCEA02120135F6EA020A
:100FC30012013523EB0212013569EB021201359C44
:100FD300EB02120135DAEB021201353FEC0212018A
:100FE3003554EC021201355FEC021201356CEC0250
:100FF30012013583EC0212013591EC021201359C8A
:10100300EC02120135A8EC02120135BBEC0212010D
:1010130035C6EC02120135E9EC021201358DED0201
:101023001201359DED02120135B7ED02120135D4DF
:10103300ED02120135EFED0212013514EE02120139
:10104300351FEE0212013534EE0212013548EE026D
:10105300120135A9EE02120135AFEE02120135B5C8
:10106300EE02120135BBEE02120135D3EE0212017C
:101073003506EF021201350580021201359C80020C
:101083001201353481021201352482021201355BCB
:1010930082021201356E8202120135DC82021201D4
:1010A300357784021201359E840212013540850290
:1010B300120135758502120135868502120135FF4D
:1010C300850212013520860212013538860212018B
:1010D30035908702120135998902120135E98B0295
:1010E300120135EC8C021201353B8D02120135439E
:1010F300D90112013540DA011201352BDB0112014E
:101103003535DB0112013557DB0112013563DB0194
:10111300120135B5DC01120135E4DC01120135148D
:10112300DE0112013556DE0112013582DF011201A3
:101133003558E001120135AAE00112013509E10138
:1011430012013540E1011201357BE101120135162F
:10115300E5011201352FE501120135B1E501120157
:1011630035BFE50112013514E60112013522E6010E
:101173001201358FE60112013501E70112013547EE
:10118300E7011201357C74001201359E74001201CF
:10119300358876001201352D7A00120135707B00F7
:1011A3001201354A7C00120135D8AF03120135FD17
:1011B300AF031201356EB00312013595C20212015D
:1011C300359EC202120135A7C202120135D8C302ED
:1011D300120135F7C5021201352DC602120135671A
:1011E300C6021201359DC602120135D7C60212018D
:1011F300350BC70212013537C70212013580C7020A
:10120300120135BAC70212013502C802120135585C
:10121300C8021201358DC802120135E8C802120155
:101223003522C90212013573C902120135A9C90257
:10123300120135E3C90212013511CA021201353414
:10124300CA021201355CB90312013588B9031201D0
:1012530035E3B903120135EDB903120135FDB903C5
:101263001201357CBB03120135304A001201359956
:101273004C00120135504E00120135AD4E001201E3
:1012830035AA4F00120135325000120135B7500014
:10129300120135DC50001201352C510012013521A9
:1012A3005400120135975400120135835500120181
:1012B30035BD5500120135FD55001201359D57000E
:1012C300120135F257001201353F5800120135ADB6
:1012D3005800120135D45800120135EE580012019E
:1012E300351E5A00120135355A001201352B5C00A8
:1012F3001201354B5C00120135815C00120135F19E
:101303005D00120135715E00120135B05E001201FD
:1013130035EB5F001201350080031201355880035D
:10132300120135A081031201350F8203120135BE6C
:101333008203120135DD8203120135318303120169
:10134300356F8303120135F5BB03120135F07F00BE
:10135300120135E4BB03120135E0B703120135F086
:10136300B70312013502B80312013593B803120112
:101373003540B403120135C4B4031201352AB50351
:10138300120135F37F00120135E9FF01120135F92E
:10139300FF01120135FCFF01120135F87F00120134
:1013A3003536AC03120135A6AD0312013507AE0382
:1013B300120135A0B80312013536B9031201354EB7
:1013C300B9031201353AB60312013563B6031201AC
:1013D300358CB603120135CEB60312013555E00242
:1013E3001201355FE0021201359FE002120135E878
:1013F300E00212013522E10212013578E102120105
:101403003597E102120135A0E102120135F1E10243
:101413001201351AE2021201352FE2021201359F41
:10142300E2021201352DE30212013571E3021201CA
:101433003599E30212013518E4021201355BE40227
:1014430012013598E402120135AAE402120135C9EA
:10145300E402120135D2E4021201359CE5021201C5
:10146300358EB103120135DFB10312013568B203C2
:10147300120135CEB203120135F8A0031201352251
:10148300A10312013517A20312013546A20312016B
:1014930035CCA20312013543B5031201351DBB033D
:1014A3001201353CA80312013572A803120135ABB2
:1014B300A80312013504AA0312013507BA03120166
:1014C300351DBA0312013527BA031201357DBA035C
:1014D300120135C2CA021201357FCB02120135BA9D
:1014E300CB02120135E2CB0212013544CC021201C8
:1014F3003590CC02120135FBCC0212013577CD02B7
:1015030012013573CE02120135FACF021201357D75
:10151300D002120135E1D002120135F8D0021201D6
:1015230035EED1021201353AD2021201358184031C
:10153300120135968403120135468503120135865F
:1015430085031201359F8503120135D285031201EC
:10155300351F860312013553860312013595860321
:10156300120135938803120135D0E7011201358743
:10157300EB0112013519ED0112013570ED01120174
:10158300358FED011201350DEE011201359FEF018B
:1015930012013583F00112013594F401120135680B
:1015A300F501120135AEBA03120135EBBA0312018C
:1015B30035FCBA031201350ABB03120135498D0309
:1015C300120135888D03120135C98E03120135E0EE
:1015D3008E03120135FA8E031201357D8F0312013A
:1015E300350890031201353490031201350F91032E
:1015F3001201356291031201358891031201356A94
:10160300FD0212013591FD0212013595FE02120110
:1016130035C1FF0212013586D902120135DED90226
:10162300120135FBD902120135AADB02120135176B
:10163300DD02120135A2DD021201356EDF02120155
:1016430035E2DF0212013537E002120135BDFF0139
:10165300120135C6BB03E066701008A3E066700A8A
:1016630008A3E066700408A3E06622C3E7960809AE
:10167300E7960809E7960809E79622C3E09608A3C8
:10168300E09608A3E09608A3E09622C008C3E0967C
:10169300F50808A3E096420808A3E096420808A3C9
:1016A300E09645087001D3D00822080808EAC0E094
:1016B300EBC0E086F0E7A4FA180986F0E7A42AFA5B
:1016C300180986F0E7A42AFA180986F0E7A42AFA8B
:1016D3001986F0E7A4FBE5F02AFA190886F0E7A4D7
:1016E3002BFBE5F03AFA190886F0E7A42BFBE5F0AB
:1016F3003AFA18180986F0E7A4C5F02BFBE43AFA86
:101703001908E7C5F0C6A426F6E5F03BFBE43AFA70
:101713001886F0E7A4F6E5F00826F6E43B08F6E4BD
:101723003A08F6D0E0FBD0E0FA22E4CFC0E0E4CE02
:10173300C0E0E4CDC0E0E4CCC0E075F020E626F6DE
:1017430008E633F608E633F608E633F6181818EC1D
:1017530033FCED33FDEE33FEEF33FFC3EC9709EDBE
:101763009709EE9709EF97191919400FFFEC97FCAA
:1017730009ED97FD09EE97FE191906D5F0BFECF7B1
:1017830009EDF709EEF709EFF7191919D0E0FCD0C5
:10179300E0FDD0E0FED0E0FF226016080808C6C3D3
:1017A30013C618C613C618C613C618C613C6D5E083
:1017B300EA227009080808226016181818C6C333ED
:1017C300C608C633C608C633C608C633C6D5E0EA5C
:1017D30022E627F60809E637F60809E637F6080988
:1017E300E637F622E026F608A3E036F608A3E0364D
:1017F300F608A3E036F622E026F008A3E036F00868
:10180300A3E036F008A3E036F022C3E697F6080912
:10181300E697F60809E697F60809E697F622C3E085
:1018230096F008A3E096F008A3E096F008A3E096EC
:10183300F022E056F608A3E056F608A3E056F608B1
:10184300A3E056F622E056F008A3E056F008A3E022
:1018530056F008A3E056F022E0F608A3E0F608A34A
:10186300E0F608A3E0F622E6F008A3E6F008A3E614
:10187300F008A3E6F022E0FAA3E0FBA3E0FCA3E078
:10188300FD22E0F8A3E0F9A3E0FAA3E0FB22E8F0ED
:10189300A3E9F0A3EAF0A3EBF022CAC0E0E6F0A3C9
:1018A30008DAFAD0E0FA22CAC0E0E0A3C582CCC5C8
:1018B30082C583CDC583F0A3C582CCC582C583CD44
:1018C300C583DAE6D0E0CA22C3E498F8E499F912B2
:1018D300190C8026C3E49AFAE49BFBE920E7E9129A
:1018E300190CE498F8E499F922C3E498F8E499F917
:1018F30012190CE498F8E499F9C3E49AFAE49BFB0F
:1019030022EB20E7CFE920E7E0B90010BB0008E8AD
:101913008AF084F8AAF022E4FBC8FA22EB70227B57
:1019230010C833C8C933C9335007C39AC3DBF28025
:10193300069A50012ADBEAC833F4C8C933F4C9FA5A
:101943002275F008E4C833C8C933C933C99AC99B9F
:101953005004C92AC93BD5F0ECFBC833F4C8E4C929
:10196300FA22600D08C6A2E713C618C613C6D5E04F
:10197300F322600C08C6C313C618C613C6D5E0F419
:1019830022700422600D18C6C333C608C633C6D5F9
:10199300E0F41822251810AF08F518400C1519802B
:1019A30008F51840021519D2AF2200C0D02518102F
:1019B300AF08F518500C05198008F51850020519E1
:1019C300D2AFD0D0222518F58210AF08F518400CFD
:1019D30015198008F51840021519D2AF851983220D
:1019E3002518F582E43519F583222518F8E435190D
:1019F300F9222518FAE43519FB222518FCE43519D8
:101A0300FD22E4732518C582C0E0E51934FFC583C0
:101A1300C0E0E518C3958224F810AF0885831985C3
:101A230082188008858319858218D2AFCEF0A3E58A
:101A330020F0A37808E608F0A3DEFAEFF0A3E5812F
:101A430024FAF8E608F0A3E608F0A3E608F0A308F2
:101A530008E608F0A3E608F0A315811581D0E0FE9F
:101A6300D0E0F8158115811581E8C0E0EEC0E022D1
:101A73002518C582C0E0E51934FFC583C0E0E51829
:101A8300C3958224F910AF088583198582188008CD
:101A9300858319858218D2AFCEF0A3E520F0A37811
:101AA30008E608F0A3DEFAEFF0A3E58124FBF8E6ED
:101AB30008F0A3E608F0A30808E608F0A3E608F098
:101AC300A315811581D0E0FED0E0F815811581E8DA
:101AD300C0E0EEC0E022851983851882E0A3FEE012
:101AE300A3F5207808E0A3F608DFFAE0A3FFE0A35C
:101AF300C0E0E0A3C0E0E0A3C0E0E0A3C0E0E0A357
:101B0300C0E010AF08858218858319800885821884
:101B1300858319D2AFD083D08202013285198385A0
:101B23001882E0A3FEE0A3F5207808E0A3F608DF1F
:101B3300FAE0A3FFE0A3C0E0E0A3C0E0E0A3C0E0BD
:101B4300E0A3C0E010AF088582188583198008855B
:101B53008218858319D2AFD083D08222C0D02518B2
:101B6300C582C0E0E51934FFC583C0E0E518C3951D
:101B73008224F310AF088583198582188008858332
:101B830019858218D2AFC8F0A3E9F0A3EAF0A3EB5A
:101B9300F0A37908E709F0A3D8FAECF0A3EDF0A3DA
:101BA300EEF0A3EFF0A3D0E0F0A3D0E0F0A3D0E0F9
:101BB300F0A3E520F0A3E5F0F0A3228519838518AF
:101BC30082E0C0E0A3E0F9A3E0FAA3E0FBA3780876
:101BD300E0F608A3DFFAE0FCA3E0FDA3E0FEA3E048
:101BE300FFA3E0C0E0A3E0C0E0A3E0F5D0A3E0F5ED
:101BF30020A3E0A3F5F010AF088583198582188030
:101C030008858319858218D2AFD082D083D0E0F8BB
:101C1300D0E03274048006740280027401C0E0F4E0
:101C2300041219C8D0E012189D22740480047402AF
:101C33008000CCC0E0EDC0E0E518C39CCCAD1950EA
:101C4300011D10AF068C188D1980068C188D19D2C2
:101C5300AF1218AAD0E0FDD0E0FC22D083D082E9F5
:101C6300C0E0E493A3C386F0C5F095F0F908E493CC
:101C7300A386F0C5F095F0700BE493A3C3994005D8
:101C8300E9048002A3E475F002A42582F582E5F05D
:101C93003583F583D0E0F9E493A3C0E0E493C0E097
:101CA30022D083D082ECC0E0EDC0E0E493A3FCE457
:101CB30093A3FDED4C600D121CF0EC24FFFCED34FE
:101CC300FFFD80EFE493A3FCE493A3FDED4C600DD3
:101CD300121D2FEC24FFFCED34FFFD80EFD0E0FD5F
:101CE300D0E0FCE493A3C0E0E493C0E022C0E0C3EF
:101CF300E49396087401939618400FE49366700872
:101D030008740193661870007019A3A3C3E4939633
:101D1300087401939618A3A3400DD0E0D0E0D0E05F
:101D2300021CE0A3A3A3A3A3A3D0E022C0E0C0F0BE
:101D330088F0E4936670080874019366187000A82D
:101D4300F0A3A3700BD0F0D0E0D0E0D0E0021CE011
:071D5300A3A3D0F0D0E022B1
:101D5C0074F6121A73EAFEEBFF8C088D09EE24342C
:101D6C00F8E43FF9E8FCE9FD121E8FE0FAEE2437A7
:101D7C00F582E43FF583E0F88508F0A4C885F00A05
:101D8C008509F0A4250AF9EA28F8E439F97A257BC3
:101D9C000012190CEA8C828D83F0FA131313541F62
:101DAC00F8EE28F8E43FF9E8245DF582E439F58390
:101DBC00E0C0E074075AF8D0E0B800028004C31306
:101DCC00D8FCA2E05003EA8020EE2436F582E43FF2
:101DDC00F583E0F5F0EA84A8F0EE28F8E43FF9E8A2
:101DEC002438F582E439F583E0F97F03021B1F7474
:101DFC00F5121A73EAFEEBFFEE2434F582E43FF59C
:101E0C0083E0C0E0121E8FD0E0F08E828F83A3A3FC
:101E1C00A3A3A3E0FAA3E0FB8E828F83A3A3A3A3C7
:101E2C00A3A3A3E0FCA3E0FDECC39AF50AED9BF59C
:101E3C000BEE247FF508E43FF509850882F583E075
:101E4C006401702AEE2480F582E43FF583121C3184
:101E5C00121E9974021219ADE960137CB07D04EE68
:101E6C00FAEFFB120DC5850882850983E4F0AC0AF4
:101E7C00AD0BEEFAEFFB121D5CE9F91229717F0430
:101E8C00021B1FEE2435F582E43FF58322C082C08D
:101E9C0083851882851983E0F8A3E0F9C3EA9CEBEB
:101EAC009D5010C3EC98ED99401BC3EA98EB9950E8
:101EBC0014800EC3EA98EB994007C3EC98ED994057
:101ECC0004790180027900D083D08222EAC39CFA83
:101EDC00EB9DFB2274ED121A73900376E06408609C
:101EEC0005E06407702C9061C8E060269003A4E0C4
:101EFC00F874FF68601CE875F00AA4C8AAF02AF907
:101F0C0074A628FE740339FF8E828F83A3A3A3E0EB
:101F1C0070057900022079EE2468F50EE43FF50F88
:101F2C00906060E0850E82850F83F075102075112E
:101F3C0005750800750900E5D914F50AE5D95403AF
:101F4C00F50B601FEE2482F50CE43FF50D74036570
:101F5C000B6059E50A6017EE2467F582E43FF583C0
:101F6C00E0700B793DEEFAEFFB120DF580A49005B5
:101F7C001BE064016023850C82850D83E060047A8C
:101F8C000480027A00E50AC39AFA95E0FB120C4B26
:101F9C008A088B09EA45097006121059021F1E8522
:101FAC000C82850D83E070048A108B117A008014EA
:101FBC00E5D9C0E0EAF8E51028F582E43511F5839F
:101FCC00D0E0F00AEAC3950A40E6850C82850D83C1
:101FDC00E0602874FC250AF50A7810121C1AAC0A69
:101FEC00A90BEEFAEFFB120EA374021219ADE970F5
:101FFC000AAA08AB09121467021F6F7403650B6001
:10200C0054850A0C750D00780C121C1AAC10AD110D
:10201C00AA08AB09120E6774021219AD850E8285DF
:10202C000F83E0F87480687005750C7F8002880C53
:10203C00E50CF50D780D121C1E780B121C1EA90A4E
:10204C00AC08AD099003A4E0FA7B00120A83740279
:10205C001219AD8013900376E06408600BAC10ADE0
:10206C0011EEFAEFFB120F3912106579017F0C0299
:10207C001B1F74F3121A7374FC121997EAFEEBFF10
:10208C008909A2AFE433F508C2AFEE2463F50AE484
:10209C003FF50B8010AA0AAB0B120E1F121467909F
:1020AC0004B7E004F0850A82850B83E0F8A3E0F91D
:1020BC00E849602DE82402FAE439FBEA2402F50C25
:1020CC00E43BF50D780C121C1A8A828B83E0FCA37E
:1020DC00E0F9EEFAEFFB120E1374021219ADE9607F
:1020EC00B49004B7E0604D9004B8E0F89004B7E009
:1020FC00C398500C74026509703A9004B9E06034CE
:10210C008E828F83A3A3A3A3E085188285198312E3
:10211C00215074021219E3E81221509004B6E02801
:10212C00F074021219FDAA18AB197901120AD79092
:10213C0004B7E4F0E508A2E092AF74041219AD7F85
:10214C0006021B1FF0A3E4F09004B7E0F822000095
:10215C008521878522C622C0E074EB121B5FA2AFDB
:10216C00E433F508C2AF759B00906182E0A2E050A9
:10217C0030E591A2E0502A7591FE74016521702121
:10218C001222F6120F931222E4121C2D12271B742A
:10219C00041219ADE9640170057901120FED121EDC
:1021AC00E0906182E0A2E5505DE591A2E5505775A3
:1021BC0091DF900376E064076005E06408702F12ED
:1021CC0022F674016521703E120F931222E4121C48
:1021DC002D12271B74041219ADE9640170057901E5
:1021EC00120FED7901EEFAEFFB12207E8018E064FD
:1021FC000D7013900398E004F064287002E4F07AF8
:10220C0000E0F912106B906182E0A2E6400302221A
:10221C00B9E591A2E640030222B97591BF9003760D
:10222C00E064057008120F7B120F878003120F8178
:10223C00752100120FF9E9900377F07900120FED78
:10224C00120D2F7A017B00900375E0F91214379070
:10225C007803E06442705690051FE014F0704EC293
:10226C00AF12227000782AD0E0F618D0E0F6E59F85
:10227C005407F87005750DFF8003750D7FC4C0E021
:10228C007829E6F50A08E6550DF50B740B780A1259
:10229C001975D0E0250AF8906270E0A2E740F8E8E2
:1022AC00C333906272F0906270E0D2E0F090618182
:1022BC00E0A2E35009E5E9A2E3500375E9F7A3E0D6
:1022CC00A2E75009E591A2E7500375917FE508A2BA
:1022DC00E092AF7F08021BBE8E828F83E0F8A3E0F2
:1022EC00C82416F582E438F583229003A4E0F8752F
:1022FC00F00AA4C8AAF02AF974A628FE740339FFC0
:10230C0022C0E0C0D0C082C083906183E0A2E050C4
:10231C0009E5BFA2E0500375BFFEE0A2E15009E55C
:10232C00BFA2E1500375BFFDE0A2E25009E5BFA2D8
:10233C00E2500375BFFBE0A2E35009E5BFA2E350F6
:10234C000375BFF7E0A2E45009E5BFA2E4500375A2
:10235C00BFEFE0A2E55009E5BFA2E5500375BFDF72
:10236C00E0A2E65009E5BFA2E6500375BFBFD083DB
:10237C00D082D0D0D0E032C0E074F2121B5FE5A75F
:10238C00A2E4500FE5A1A2E4500953A7EF75A1EF09
:10239C001223D7E5A7A2E5500CE5A1A2E550065300
:1023AC00A7DF75A1DFE5A7A2E15009E5A1A2E150E5
:1023BC000375A1FDE5A7A2E2500CE5A1A2E250062F
:1023CC0053A7FB75A1FB7F01021BBE74F8121A7395
:1023DC00752101900376E0640670077A007B001289
:1023EC000F63A2AFE433FED2AF90037CE0640170C4
:1023FC00187A207B00900375E0F91215517A207B36
:10240C0000900375E0F912143D906182E0D2E6F081
:10241C0090051CE0602185C622801690037BE06449
:10242C00017008E5C654F84405F5C653BEFC1221EC
:10243C005C7401652160E4EEA2E092AF7F01021BA7
:10244C001F0000008E238F24858228858327851802
:10245C0082851983E0CEA3E0CF852882852783EB84
:10246C00C9EAC8EDCBECCA75F010C3E833C8E93340
:10247C00C9EA33CAEB33CBC3EA9EF526EB9FF525AD
:10248C00B35004AB25AA26EC33CCED33CDD5F0DA22
:10249C00AE23AF242274E9121A7374FA121997EA54
:1024AC00FEEBFF8C088D09120FA5EAF8EBF9ECFA9C
:1024BC00EDFB8E828F83121891900376E024F7C384
:1024CC00940550067510010225D8120ED98A0A8B74
:1024DC000BEA450B70030225D5120F998A0C8B0D54
:1024EC00120F99EA650C7003EB650D60ECEEFCEFD6
:1024FC00FDAA18AB19120F9F850A82850B83A3A323
:10250C00780C12185B908F48780C1218358518824D
:10251C00851983781412185B908F4878141218352B
:10252C00780C791412166E501F780C791412180D41
:10253C00908F24780C12168E4047850C10850D1147
:10254C00850E12850F138045908F248514108515E8
:10255C00118516128517137810790C12180D781036
:10256C0012168E501C751000751100751200751323
:10257C00017810791412180D7810790C1217D48078
:10258C000C75100175110075120075130074097823
:10259C00101217B5908F28780C12185B7810790CE4
:1025AC0012172D900376E06408600AE0640660055B
:1025BC00E064057020908F2C781012168E501690B7
:1025CC008F3078101217E7800C751000751100759C
:1025DC001200751300850882850983781012186A19
:1025EC0074061219AD7F10021B1F74F7121A7312A6
:1025FC000FB790051AE064017010906245E4F0A3E7
:10260C00F053F4F343FE0C5390F3120F51E5C65400
:10261C00B84441F5C6E59E5447644170F890618515
:10262C00740FF0900518E0F47002A3E0602C7508AC
:10263C0001750900900518E07808121984E508F472
:10264C00FAA3E0600814600A14600C800DEA528052
:10265C008008EA52908003EA52A079007F02021BA4
:10266C001F74F7121A73E9FEEAFF74016E700C7A8C
:10267C00807B00900375E0F9121437902A90E49354
:10268C00F46008E493F9120D11800953C6B8E59E65
:10269C00544770FA120F5790051AE0640170031238
:1026AC000D47900518E0F47002A3E0602B7508014B
:1026BC00750900900518E07808121984E508FAA34A
:1026CC00E0600814600A14600C800DEA42808008F7
:1026DC00EA42908003EA42A0120ED98A088B09A81C
:1026EC0008A909E8496016E5E170FCE82414F582B4
:1026FC00E439F583E0F874FF68600288E174016FD7
:10270C00700A7A01900375E0F91214C702266874F6
:10271C00F1121A738A088B098C0A8D0B908F4878EA
:10272C0008121835740F1219E3780C12185B908F7D
:10273C0048780C1218357808790C12166E908F2484
:10274C0050107808790C12180D780812168E401457
:10275C00800E780C790812180D780C12168E500415
:10276C007901800279007F08021B1F74ED121A7325
:10277C008A088B098C0A8D0B908F487808121835B3
:10278C0074131219E3780C12185B908F48780C12A2
:10279C001835780C790812166E40117808790C12DD
:1027AC00180DAA08AB09AC0AAD0B80227510007588
:1027BC0011007512007513017810790C12180D7830
:1027CC001079081217D4AA10AB11AC12AD137F0CF0
:1027DC00021B1F908F48780812185B8A828B8378B3
:1027EC00081218487F04021B1F74F5121A738C828E
:1027FC008D83780812185B8A828B837808121821D3
:10280C00122849C3E098F0A3E09912283B401E908F
:10281C008F6C780812185B8A828B8378081217FAEF
:10282C008E828F83E02420F0A3E0344EF080A4F05D
:10283C008E828F83C3E09420A3E0944E22EA24047A
:10284C00F8E43BF9E8FEE9FF8C828D83A3A3A3A3F4
:10285C00E0F8A3E0F98E828F832274F5121A73E9E3
:10286C00FE9004D2E0FAA3E0FBEE29F8E433F9740D
:10287C00B528F582748E39F583E02AF508A3E03B80
:10288C00F5097808121C1A908F50121879122450DE
:10289C0074021219AD8A088B098C0A8D0B7410788E
:1028AC000812179CAA08AB097F04021B1F74F112B3
:1028BC001A738A0C8B0D8C0E8D0F74111219E31276
:1028CC001C3174111219E3E02401F508A3E0340063
:1028DC00F509E4F50AF50B780C79081216AD908F12
:1028EC003C780812185B780C79081216ADAA0CAB60
:1028FC000DAC0EAD0F12245074021219AD8B09EAF7
:10290C00450960047A0180027A00EC2AFCE43DFD62
:10291C0074131219E3E0F8A3E0F9E8FEE9FFECF810
:10292C00EDF97A717B0212190C88088909E4F50A11
:10293C00F50B8E828F83780812186AECF8EDF97A11
:10294C00717B0212190C8A088B097405780812190C
:10295C00848E828F83A3A3A3A3E508F0A3E509F0DB
:10296C007F08021B1FC082C083E9906000F0D083F7
:10297C00D08222C0E0C0D0E8C0E0E9C0E0A9A8D273
:10298C00AFC2C7751A00E9A2E7E433F8E9A2E792EF
:10299C00AFD0E0F9D0E0F8D0D0D0E032C0E0C0D079
:1029AC00E8C0E0E9C0E0EAC0E0C082C083A2AFE4C6
:1029BC0033FAD2AFA8C1E8C0E0900905E0F8740A78
:1029CC0028F582E43408F583D0E0F0900904E0F8AF
:1029DC00A3E0687006E595900907F0900905E004FE
:1029EC00F0C394FA4002E4F0A3E4F0EAA2E092AF60
:1029FC00D083D082D0E0FAD0E0F9D0E0F8D0D0D0BB
:102A0C00E032C0E0C0D0E8C0E0E9C0E0EAC0E0C01D
:102A1C0082C083A2AFE433FAD2AF900A02E0F8A3EB
:102A2C00E0687008539AFBA374018022C2E9900AF3
:102A3C0002E0F8740128F0740828F582E43409F5F2
:102A4C0083E0F5C1900A02E0C394FA4002E4F080FE
:102A5C009AC2AF02000022C0E074F2121B5FA2AF58
:102A6C00E433FED2AF9010C4E0700512163580032B
:102A7C0012163B758A00C2EBEEA2E092AF7F010208
:022A8C001BBE6F
:102A9000FFFFFFFFFFFFFFFFC082C083E9901B0223
:102AA000F0D083D08202013274F6121A07E9900244
:102AB000E8F0900348E0F508750900740278081200
:102AC0001984AA08AB091214AF9002E912342E90AF
:102AD00002E912381B606F900348E075F003A4FA16
:102AE000ABF01214AF90030612342E900306123886
:102AF0001B700B9002E91237EC1214B5804890035A
:102B00000612472F7AFF7BFF1213177A0080198A6B
:102B1000087509007402780812198412422874FF9B
:102B2000122C5BE4F0A3F00A900348E0F8EAC398A3
:102B300040DD79051209759002E8E0F91208617A22
:102B4000F37B09120BEB0242CB74F4121A078A08CA
:102B50008B09EB548060479002E8E0F912141F8A59
:102B60000A8B0BAE0AAF0BEE4F602A8E828F83E08A
:102B700064B0701A120981E960148E828F83A3A356
:102B8000A3A3E0F9EE2405FAE43FFB120957EEFA9D
:102B9000EFFB12140DAA08E5096480FB80047A009B
:102BA0007B00022D7E74F2121A0774FB121997EA49
:102BB000FEEBFFEE4F604574031219E3EEF0A3EF56
:102BC000F0851882851983ECF0A3EDF074021219D8
:102BD000E3E9F0AA18AB1912085BE9F508707574FF
:102BE000131219E3E0F50AA3E0F50BE50A450B60C3
:102BF000638E828F831231B7EE4F700575080280A5
:102C0000537A067B001214AF8A0C8B0DA80CA90D09
:102C1000E8497005750813803B88828983E4122C8B
:102C20005BEEF0A3EF122D77E50AF0A3E50BF09031
:102C300002EC122D709002EC6017E0FCA3E0800320
:102C4000EAFCEBFD8C828D83122D7070F38C828DEB
:102C500083123E43A90874050249AFF0A31247113D
:102C6000A32274F2121A078908890C750D007403E7
:102C7000780C121984850C0A850D0B9002EBF090EC
:102C800002E9123C4E122D6E602E1214B5790080AE
:102C90001D890C750D007402780C1219849002E9DC
:102CA0001240E78882F583A3A3E4F0A3F009900320
:102CB00048E0F8E9C39840D9900348E0FA850AF063
:102CC000A4CAA8F0850BF0A428FB1214AF8A0C8BC1
:102CD0000DAE0CAF0DEE4F7003022D64900348E073
:102CE000FC850AF0A4CCA8F0850BF0A428FD79009F
:102CF0001213FB7C0080318D0C750D007403780C71
:102D00001219848A828B83122D6988828983E4F068
:102D1000122D76A3A3F0A3F00DEDC3950840D8EED5
:102D2000250AFEEF350BFF0C900348E0F8ECC39842
:102D300050288C0C750D007402780C1219849002C6
:102D4000E9122D69E82402500109FAE9FB8A828B15
:102D500083EEF0A3EFF07D0080BFE5089002EBF07A
:102D60007900800279130249B21240EBF922A3A341
:102D70001237F0EA4B22A3124711A3A3A3227F0428
:102D8000021AD9C082C0839002EC12381B601C88E2
:102D9000828983A3A3E06A7003A3E06B888289839E
:102DA00070E8A3A3A3A31237EC80047A007B00028F
:102DB0002AA174F2121A0774FD121997EAFEEBFFAA
:102DC000851882851983E4F0A3F074021219E37464
:102DD00001F01238187014120B251214AF9002EF84
:102DE00012342E1238187003022F4412352EEE249E
:102DF00004F50AE43FF50B850A82F583E024FE60C2
:102E00003C24FC607424FE607E24FE7003022E9439
:102E100024FE7003022EA124FE7003022EAE24FEB7
:102E20007003022EBB24FE7003022EC824FC700324
:102E3000022EE924FE7003022F01022F3D120B2502
:102E40009002F1EAF0A3EB122F501205A9E96003FA
:102E5000022F3D9002F1121C318E828F83A3A3A317
:102E6000A3A312472F8508828509831237EC120924
:102E70003F74021219AD022F3DAC18AD19EEFAEFF6
:102E8000FB120987022F0CAC18AD19EEFAEFFB12FA
:102E9000098D8078AC18AD19EEFAEFFB120993801A
:102EA0006BAC18AD19EEFAEFFB120999805EAC1805
:102EB000AD19EEFAEFFB12099F8051AC18AD19EE77
:102EC000FAEFFB1209A5804474021219ED880C89EF
:102ED0000D780C121C1A74021219FDEEFAEFFB1297
:102EE00009AB74021219AD8023AC18AD19EEFAEFDC
:102EF000FB1209B1E9F8701674021219E3E4F080CC
:102F00003CAC18AD19EEFAEFFB1209B7E9F8E8602E
:102F10002C8E828F83A3E064146022850A82850B45
:102F200083E09002F1F08518828519831237EC90C6
:102F300002F212342EE8A3122F501205A3EEFAEF7C
:102F4000FB12091574021219E3E0F974030249AF88
:102F5000F07CF17D028508828509831237F02274A6
:102F6000E8121A0774FA12199774041219E3ECF0B4
:102F7000A3EDF08A128B13EA2405F50EE43513F560
:102F80000FEA2402F510E43513F511851082F5835C
:102F90001237EC1206998A0A8B0B7508007C037DA8
:102FA0000079007AF17B021213FBE50E2402F5167C
:102FB000E4350FF51774021219ED880C890D780CA1
:102FC000121C1A850E82850F83A3A3A3A3E0F50C20
:102FD000750D00780C121C1AE50E2405F50CE4356D
:102FE0000FF50D780C121C1A851682851783123A7C
:102FF000F312087974061219AD8A0C8B0DE50C4595
:103000000D70030231808020851882851983E08845
:10301000828983F00508851882851983A3E0C0E0C2
:103020001231C1D0E0F00508E50A24FBFAE50B34C3
:10303000FFFBC3E5089AE49B40030231807E007FDA
:1030400000851282851383A3A3A3A3E0F509780961
:10305000121C1EE4F514F5157814121C1A7514EEE2
:103060007515027814121C1A9002EF121C317409A3
:103070001219E3121C31E50A24F9F9AC0CAD0D85E7
:1030800010828511831237EC1209DB74091219AD15
:10309000E96003023121850E82850F83A3A3A3A3D8
:1030A000A3A3A3E0F89002EEE0687075E0F5148E3B
:1030B000157814121C1A12472C850E82850F83A3D3
:1030C000A3A3A3A3A3A3A31237EC1213F5740212B4
:1030D00019ADE9604C9002F212381B703BE4F51414
:1030E0007814121C1A7CFF7DFF79078510828511E8
:1030F000831237EC12095174021219AD1238217083
:1031000017850E82850F831248C974041219E312C1
:1031100041DB123B240231B4850C82850D831231D0
:10312000B7A818A919881489157814121C1A7404E0
:103130001219E3121C31851682851783123424126A
:10314000088574041219AD8A0C8B0DEE4F700302C2
:103150002FFD1231C1EE1231CC123ADAEF1231CC1E
:10316000F8A3E03400F9E50C450D6003023008884F
:1031700082898374FFF005081231C174FFF00508DD
:10318000E508601A1313543F1234341205B5E96090
:10319000099002F21237EC12146779008016850E3E
:1031A00082850F831248C974041219E31241DB129D
:1031B0003E43790A023AADA3A3A3A3E0FEA3E0FF36
:1031C00022A8089002F2E028123ADA22F005080854
:1031D0009002F2E0282274E8121A0774FA12199782
:1031E00074021219E312342E74041219E3ECF0A3E2
:1031F000EDF074021219E3E02405123AC3E0F50C75
:10320000A3E0F50D74021219E3E02402F510A3E027
:103210003400F511851082F5831237EC120699758A
:103220000800750900EA24FCFEEB34FFFF80080566
:103230000CE50C7002050DA808C3EE98EF94005041
:10324000030233E0A818A919880E890F780E121C02
:103250001A851482851583A3A3A3A3124733121CD6
:103260001AE5142405F50EE43515F50F780E121C39
:103270001A85148285158312342212087974061275
:1032800019AD8A0E8B0FEA450F70030233E0EA2472
:1032900004F516E4350FF517851682F583E0F50C75
:1032A000A3E0F50D85188285198312472F8A828B3A
:1032B00083A3A3A3E0F98510828511831237EC1252
:1032C0000867E9F50960030233E074021219E3129A
:1032D0003AEAF5097809121C1EE4F512F513781282
:1032E000121C1A7512EE7513027812121C1A900233
:1032F000EF121C3174071219E3121C31EEF9AC0EF7
:10330000AD0F8510828511831237EC1209DB740929
:103310001219ADE9F50960030233E0E508703FE4F6
:10332000F50EF50F780E121C1A7CFF7DFF790985CA
:1033300010828511831237EC12095174021219ADF3
:10334000123B10700D74041219E312341779110234
:1033500034149002EEE024029002F2F08014900205
:10336000F2E0FA9002EEE0790024025001096A4985
:103370007072A8089002EEE0FAE82AFAE43400FB42
:10338000EE9AEF9B405A851682851783E0C0E09045
:1033900002F31231C6D0E0F0050885168285178346
:1033A000A3E0C0E0089002F31231C6D0E0F00508B7
:1033B0009002EE124733121C1A12472CA808123A38
:1033C000B71213E374021219AD9002EEE02508F56E
:1033D0000874FF650C700474FF650D600302322FE2
:1033E000E508601F9002F2E0F5F0E508841234343D
:1033F0001205BBE960099002F31237EC12146779E9
:10340000008011E509700375090A74041219E312AA
:103410003417A909023AAD123C52E50CF0A3E50DB0
:10342000F022A3A31249BEAA0CAB0D22A3A3EAF07B
:10343000A3EBF0229002F1F07CF17D0285108285F1
:1034400011831237F02274EC121A0774FC121997C8
:10345000123F5374021219FD1237E612087F8A0CCC
:103460008B0DEA450D700302351E12352EA818A9E2
:1034700019881089117810121C1A7CFF7DFF790BB6
:103480008508828509831237EC12095174021219DA
:10349000AD123624700C850A82850B83123B210203
:1034A000352B8E828F83A3A3A3A3E0F5127812128B
:1034B0001C1EE4F512F5137812121C1A7512F17520
:1034C00013027812121C1A7810121C1A740912199D
:1034D000E3121C3174091219E3E0F9AC0CAD0D854F
:1034E00008828509831237EC1209DB74091219ADC1
:1034F000E9FE70157CF17D0285088285098312370B
:10350000EC1205C1E97009802074166E70027E000D
:103510009002F21237EC121467EE7004800B7E01F9
:10352000850A82850B83123E40EEF9023E55EE2459
:1035300002F508E43FF5092274EC121A0774FC1234
:103540001997EAFEEBFF8C0E8D0FEE2405F508E4CB
:103550003FF50974021219FD850882850983123727
:10356000EC12087F8A0C8B0DEA450D7003023614AD
:10357000EE2402F50AE43FF50BA818A91988108972
:10358000117810121C1A7CFF7DFF790D1237E6129C
:10359000095174021219AD123624700B8508828508
:1035A0000983123B21807A8E828F83A3A3A3A3E099
:1035B000F5127812121C1E850882850983A3A312B6
:1035C0001C317512F17513027812121C1A78101240
:1035D0001C1A74091219E3121C3174091219E3E060
:1035E000F91237E21209DB74091219ADE9FE700F06
:1035F0007CF17D021237E61205C7E970098020745C
:10360000166E70027E009002F21237EC121467EE12
:103610007004800B7E01850882850983123E40EE8E
:10362000F9023E5512382BF510A3E0F511EA4511C9
:103630002274E8121A0774FE1219978A168B178CD7
:10364000148D15EA2405F50CE43517F50DEA24026E
:10365000F50EE43517F50F850E82F5831237EC125F
:1036600006998A088B09750B007C037D0079007A26
:10367000F17B021213FB750A00E50814F51004240F
:10368000FFF508E50934FFF50980549002F1E0FAEE
:103690009002EEE0F8EA28F8E43400F9E50898E54D
:1036A0000999500D9002F1E0F8E510C3989002EEF0
:1036B000F0E0F5127513007812121C1A12472C90C4
:1036C00002F2E02AFAA3E03400FB1213E3740212C0
:1036D00019AD9002EEE0F89002F1E028F0050A85BD
:1036E0000C82850D83A3A31240F740030237C790D5
:1036F00002F1E0C39508E4950940030237C7AE0A1A
:10370000EE2EFEE433FF123806AC18AD191247470F
:10371000E439FB12087F8A128B13AC12AD13EC4D07
:10372000701B750B011237F6123E449002F2122DF7
:10373000706003121467A90B7402023AAF851682F7
:10374000851783A3A3A3A3E0F50B780B121C1EE43B
:10375000F512F5137812121C1A7512EE7513027811
:1037600012121C1A9002EF121C3174071219E31284
:103770001C31A910850E82850F831237EC1209DBEC
:1037800074091219ADE9F50B709B9002F212381B07
:10379000600302368BE4F512F5137812121C1A7CC2
:1037A000FF7DFF790F850E82850F831237EC12099A
:1037B0005174021219AD123821600302368B123790
:1037C000F6123B250237387CF17D02850E82850F8B
:1037D000831237EC1205CDE9600302372B79000222
:1037E0003738AC0CAD0D850A82850B831237F02279
:1037F000E0FAA3E0FB22123806E0FAA3E0F9EA853A
:10380000148285158322850C82850D83E02EF8A312
:10381000E03FF988828983229002EF1248CDE8497F
:103820002212382BF8A3E0F9E849229002F2EAF0DC
:10383000A3EBF09002F2E02274E8121A0774FA1275
:10384000199774041219E312342E8C168D17740410
:103850001219E3E02405F50EA3E03400F50F74041B
:103860001219E3E02402123AC31237EC1206998AC5
:103870000A8B0B7F007E00A818A91988088909788F
:1038800008121C1A850E82850F83A3A3A3A3E0F55B
:10389000088E097808121C1AE50E2405F508E4358F
:1038A0000FF5097808121C1A850E82850F83A3A3D1
:1038B000123AF312087974061219AD8A0C8B0D8036
:1038C00029123AE4F00F123AE4F00F9002EE123EA1
:1038D0002F121C1A12472CEFF8123AB71213E37486
:1038E000021219AD9002EEE02FFFE50C450D7003BA
:1038F000023973851882851983123F65A3A3A3E05B
:10390000F98514828515831237EC120867E9FEE504
:103910000C2404F510E4350DF511EE70507404120A
:1039200019E3123AEAF5087808121C1EE4F508F5C6
:10393000097808121C1A7508EE7509027808121C1D
:103940001A9002EF121C3174071219E3121C31E5B0
:103950000A24FAF9AC0CAD0D851482851583123753
:10396000EC1209DB74091219ADE9FE6039123B0053
:10397000123E43EF7003023A9A9002F2E0F5F0EF44
:10398000849002F1F07CF17D02851482851583120A
:1039900037EC1205D3E960099002F31237EC1214E8
:1039A000677900023AAD8F08EF703BE4F512F5132A
:1039B0007812121C1A7CFF7DFF79118514828515FF
:1039C000831237EC12095174021219AD123B1070B8
:1039D00009123B00123B24023AAD9002EEE02404AF
:1039E0009002F2F080359002EEE0F89002F2E0FAF8
:1039F000E82404FCE43400FDEC6A4D6003023979EC
:103A0000E50A24FAFAE50B34FFFBE50828F8E4346C
:103A100000F9EA98EB9950030239798510828511F3
:103A200083E0C0E09002F3E02FF8A3E03400888246
:103A3000F583D0E0F00F851082851183A3E0C0E00C
:103A4000123AD1D0E0F00F74021219ED88088909FA
:103A50007808121C1A74021219E3121C31850E82A6
:103A6000850F8312342212088574041219AD8A0C52
:103A70008B0DEA450D70030238C174021219E3E0A0
:103A8000C0E0123AD1D0E0F00F74021219E3A3E0C3
:103A9000C0E0123AD1D0E00238C9EE70027E0A8549
:103AA0000E82850F83123B06123E43EEF974061216
:103AB00019AD7F10021AD99002F3E028FAA3E0347E
:103AC00000FB22F514A3E03400F515851482F5837C
:103AD00022123AD5229002F3E02FFAA3E034008AB2
:103AE00082F58322123AD574FF22123C52A3A3A37B
:103AF000A3E0221249BE850E82850F831237F02281
:103B00008510828511831248CD8516828517832200
:103B10009002F3EAF0A3EBF09002F31248CDE849EB
:103B200022123E49E8F0A3E9F079112274EA121A50
:103B30000774FE1219978A088B098C128D13EA24D8
:103B400005FEE43509FFAC18AD198E828F8312375C
:103B5000EC12087F8A0C8B0DEE2406F50EE43FF57F
:103B60000FEA450D7003023C24E5082402F50AE43F
:103B70003509F50B8A828B83A3A3A3E0A2E5502825
:103B80008518828519831237EC1209D58A108B119A
:103B9000EA4511602079121237E28510828511837F
:103BA000121A05E9F50C707F850E82850F83E0609F
:103BB0000979528011750C0E806D85088285098304
:103BC000A3A3A3A3E0F9E4F508F5097808121C1AE9
:103BD0008E828F83A3A3E0F5087808121C1A8E82C8
:103BE0008F83A3A3A3121C318E828F8312472F12BF
:103BF00037E61209E174061219ADE9F50C7011856A
:103C00000E82850F83E0702D1237E61205D98025CC
:103C10007416650C7011750C0074181219E3123CBF
:103C20004EE48010750C011248C5851282851383FD
:103C3000E8F0A3E9F0850E82850F83E06004790047
:103C40008002A90C74021219AD7F0E021AD9123C1F
:103C50005222E0F8A3E0F58388822274EC121A075E
:103C600074F71219978A0A8B0B8C108D11EA2405B0
:103C7000FEE4350BFF750C00AC18AD198E828F83F6
:103C80001237EC12087F8A088B09EA450970030293
:103C90003E1AE50A2402F50A5002050B8A828B833C
:103CA000A3A3A3E0A2E5502F8518828519831237BC
:103CB000EC1209D58A0C8B0DEA450D604F7912ACD8
:103CC00008AD091237E6850C82850D83121A05E9C5
:103CD000F50C6003023E1D850A82850B83E0F50822
:103CE000A3E0F509AA08FB1209C9EA4B70197AFF8B
:103CF0007BFF1209C9EA4B7003023E108A828B8354
:103D0000E508F0A3E509F07508008008750C0E02BF
:103D10003E1D05089002EBE0F8E508C39840030259
:103D20003E1085080E750F007403780E1219848AF0
:103D3000828B83A3A3E0250EF8A3E0350F1241E4A4
:103D400070D08E828F83123E3812342E8E828F83F3
:103D5000A3A3123E3812342CEE2404F508E43FF5F8
:103D600009850882F583E088828983A3A3A3A3F051
:103D7000A3E4F0EE2405F50EE43FF50F850E82F581
:103D800083123E38A3A3A3A312342C751207751314
:103D9000007812121C1AEEFCEFFD74041219F512D1
:103DA00013E374021219ADE4F5127812121C1A858D
:103DB0000882850983E0FC7D0079171237E6120935
:103DC0005174021219AD74071219E312342E7407DC
:103DD0001219E3E0FA4B603D850882850983123EA3
:103DE0002F121C1A850E82850F8312472F1213E3A0
:103DF00074021219AD74021219FD1237E61205DFB2
:103E0000E9602674071219E31237EC12146780195F
:103E1000750C098008750C118003750C011248C5DA
:103E2000851082851183123E43A90C74098028E015
:103E3000F5087509007808221237F08882898322F4
:103E4000123E49E8F0A3E9F022E0F8A3E0F9850E7C
:103E500082850F832274041219AD7F0C021AD97463
:103E6000EC121A07123F53751000EE2402F50CE411
:103E70003FF50D850C82F5831237EC1209C98A08CB
:103E80008B09EA45097003023F37850A82850B8357
:103E9000E064016003023F2CAC08AD09AA0AAB0B39
:103EA0001209BDE9606E8508828509831231B9EE79
:103EB0002406F50AE43FF50B8E828F83A3A3121C20
:103EC000318E828F83A3A3A3A3121C31850A82851E
:103ED0000B83121C3179188E828F83123F65123743
:103EE000EC1209E174061219ADE9F8741668700B4A
:103EF000850A82850B83E4F0A38014E860128E8229
:103F00008F831237EC850E82850F83EAF0A3EBF0E6
:103F100088108018780E121C1AAC08AD09EEFAEF62
:103F2000FB1209C374021219ADE9F510AA08AB0916
:103F30001209CFE510700E850C82850D831237ECC7
:103F40001205E58009741665107003751000A9103C
:103F5000023E5AEAFEEBFF8C0E8D0FEE2405F50AA9
:103F6000E43FF50B221249BE850C82850D83227435
:103F7000EA121A077508007509007E007F00750AAD
:103F800000EC2402F510E43DF5118035EC65087075
:103F900003ED6509600302402488828983A3A3E0BE
:103FA0006A7003A3E06B707C88828983A3A3A3A3B8
:103FB0001248C9EE28FEEF39FFEA28FAEB39FB0573
:103FC0000A1240F4503A850A0C750D007403780CFF
:103FD0001219848510828511831240E71241E46032
:103FE0001FE508450970A58C088D09888289831210
:103FF00031B788828983A3A3E02EFAA3E03F80BE75
:10400000E50AC3940250030240E2750800750900F6
:10401000EE4F6010EEFAEFFB1214618A0E8B0FEA7E
:10402000450F700579000240E4750B000240B7852A
:104030000B0C750D007403780C12198485108285A1
:104040001183E0250CF50CA3E0350DF50DE50C24EE
:1040500006F514E4350DF515851482F5831241E952
:104060006042E50C2404F512E4350DF51385128247
:10407000F583121C31E50E2508FAE50F3509FB1210
:1040800013E374021219AD851282851383E02508AB
:10409000F508A3E03509F5098514828515831237E3
:1040A000EC121467E50B600D7C087D007900AA0C0A
:1040B000AB0D1213FB050BE50BC3950A5003024031
:1040C0002F8510828511831248C988828983A3A312
:1040D000A3A3A3A3E50EF0A3E50F122D77EEF0A3A3
:1040E000EFF07901023C491240EB22E0250CF8A3E5
:1040F000E0350D229002EBE0F8E50AC3982274F057
:10410000121A078A0E8B0F8C0A8D0B750D00750C19
:104110000080507916EE2406F508E43FF5098E82FA
:104120008F83A3A3121C318E828F83A3A3A3A31218
:104130001C31850882850983121C31850E82850F0A
:1041400083A3A31237EC1209E174061219ADE9F545
:104150000D7416650D706C850882850983E4F0A3E3
:10416000F0050C9002EBE0F8E50CC3985066AA0C41
:104170008A0875090074037808121984850A8285F3
:104180000B83A3A3124233E8FEE9FF8E828F8312D2
:1041900041E96040EA2401F508E43400F5099002A1
:1041A000EBE065087002E509601488828983A3A3A7
:1041B000A3A3A3A3A3A312381B600302411379187E
:1041C000024115E9609B1248C574101219E31241AF
:1041D000DB123E43A90D7F08021AD9E0FAA3E0F5ED
:1041E000838A8222F9888289831249BEEC4D227427
:1041F000F6121A077C0080010C900348E0F8ECC32B
:1042000098501E8C087509007402780812198412DF
:104210004228E06A7003A3E06B70DDE8FAE9FB80F6
:10422000047A007B000242CB9002E912423388827A
:10423000898322E02508F8A3E03509F92274F212F7
:104240001A078A088B09750A0080278E828F83A33C
:10425000A3A3A3122D6E60031214677C087D00795E
:1042600000EEFAEFFB1213FB8E828F83E4F0A3F0D3
:10427000050A1240F45027850A0C750D0074037866
:104280000C121984850882850983A3A3E0250CFEFE
:10429000A3E0350DFF8E828F8312381B70AD850829
:1042A0008285098374FFF0A3F00249B274F6121AF2
:1042B0000712097B8A828B83E582458370067A0028
:1042C0007B008007A3A3A3A31237EC7F02021AD9B5
:1042D00074E8121A0774FB121997E9851882851978
:1042E00083F08A168B17ECFEEDFF7510008E828F1F
:1042F00083A3A3A3E0A2E4502D741D1219E3123787
:10430000EC1209D58A828B83E582458370030247CC
:1043100007790AEEFCEFFDAA16AB17121A05E9F5AC
:1043200010600302470A741F1219E3E0F508A3E0C6
:10433000F50974211219E3E0F50AA3E0F50B7423E3
:104340001219E3E0F50EA3E0F50F8E828F83E0648F
:104350000260030246A8A31248C985088285098322
:10436000A3858212858313EE2406F50CE43FF50D38
:1043700088828983124747F514E439F515781412B9
:104380001CA4010000280128AA43070002286F444A
:104390000328DD4300299E450129C94502296A45B4
:1043A00003299E4504294246A846E50E450F6003B1
:1043B0000246A3850C82850D831248C9E8FAE9FB01
:1043C0008A828B83E0850A82850B83124752121CF6
:1043D0001A8A828B83A3E0FCA3E002462CE50E45FB
:1043E0000F60030246A3850A82850B837401F012D5
:1043F000473C850882850983F07C007D008E828F92
:1044000083A3A3A3A3E02401FAA3E03400FB1208D2
:104410007FEA4B60408A828B83E02402F8850A821F
:10442000850B83E028F0EA2404F8E43BF9888289CC
:1044300083E0851282851383124760124752121C53
:104440001A8A828B83A312472FE5082403FAE435E6
:1044500009FB024631850A82850B83E02404F07C47
:10446000047D007900AA12AB131213FB02470AE580
:104470000E450F60030246A312473CFEA3E0FF85F2
:104480000A82850B837404F0EE850882850983F027
:10449000EF851282851383F074031219FDEEFAEF93
:1044A000FB12087F8A0C8B0DEA450D700302454D07
:1044B0008A828B83A3A31231B774011219ED880E7F
:1044C000890F780E121C1A74051219E3121C317C24
:1044D000FF7DFF12088574041219AD8B0FEA450F9A
:1044E0007033850C82850D83124733121C1A850C9C
:1044F00082850D83A3121C317C027D007AA47B8F00
:1045000012068774041219ADE9700A74011219E3D6
:1045100074FFF0A3F08E828F83E064027039750C13
:1045200002750D00780C121C1A8E828F83A312471D
:104530002FE5082404FAE43509FB1213E374021290
:1045400019AD850A82850B83E0240280097401126B
:1045500019E3EEF0A3EFF074011219E3124721748E
:10456000011219E312471802469DE50E450F60033C
:104570000246A3850C82850D831249B7AA16AB1794
:1045800012132F850A82850B837402F085088285B9
:104590000983EAF0851282851383EB0246A0E50EBB
:1045A000450F60030246A312473CF8A3E0F9850AD1
:1045B00082850B837402F0E8850882850983F0E91F
:1045C0008512828513830246A0850C82850D831295
:1045D00037EC1213DDEAFAF8C3950EE4950F405C50
:1045E000E8650E450F70047A0080218518828519D0
:1045F00083E0FCE50E2CFCE4350FFDC3EC98ED9454
:10460000005003E08005E50ECAC39AFAEA850A82E3
:10461000850B83F08A0A750B00780A121C1A850C28
:1046200082850D83E0250EFCA3E0350FFDAA08ABC3
:10463000091213E374021219AD02470A751007023A
:10464000470AE50E450F705B850C82850D83124885
:10465000C9850A82850B837407F088828983124793
:1046600019124711E0851282851383F0E82402FABB
:10467000E439FB8A828B831247218A828B8312471B
:1046800018A3A3122D76124726F0E82405F850014E
:104690000988828983124726A3124760A3A3A3A394
:1046A000F0806775100B8062741D1219E31237ECED
:1046B00012097B8A828B83E5824583604A1248C94E
:1046C000880C890DE8450D603E74251219E3E0F56C
:1046D000107810121C1E780E121C1A780A121C1A5E
:1046E0007808121C1A74071219E3E0F9EEFCEFFDCA
:1046F000AA16AB17850C82850D83121A0574071252
:1047000019ADE9F510800375100EA9107405023A71
:10471000AFF088828983A322A3E08508828509837C
:1047200022124767F022124767A3A3229002EF12DA
:1047300049BE22E0F50E750F00780E22850C8285A9
:104740000D83123C52E022E0FAA3E0F8E4C8F9EA53
:104750002822F08A828B83E0F50A750B00780A2202
:1047600012471112476722E0850882850983A3A3B7
:104770002274EE121A0774FE1219978A088B09EC3C
:10478000FEEDFF890AAC18AD19EEFAEFFB12087FB7
:104790008A0C8B0DEA450D700302485985188285F5
:1047A00019831237EC12097B8A828B83E582458359
:1047B0007003024854A3A31248C9880E890FE84524
:1047C0000F700302485474141219E3E0F510A3E0CB
:1047D000F511E50AF50B780B121C1E74191219E37A
:1047E000121C317810121C1A741B1219E3E0F9AC78
:1047F0000CAD0DAA08AB09850E82850F83121A0530
:1048000074051219ADE9F50B705274FE650A604C1F
:10481000850C82850D83E064027041124868FAA31A
:10482000E0F9EAF87402687003742969702E851043
:1048300082851183124747F50CE439F50D780C1287
:104840001C1AEEFCEFFDAA08AB091209F97402125A
:1048500019AD8008750B0E8003750B01A90B74024E
:104860001219AD7F0A021AD9A31248CD8882898312
:10487000E02274F6121A0774FE121997740C1219BA
:10488000E31248C9E8851882851983F0740112196A
:10489000E3E9F0E4F508F5097808121C1A75080236
:1048A0007808121C1A74041219ED8808890978080E
:1048B000121C1A79FE1209E174061219AD74021263
:1048C00019AD0242CB8E828F831248CD22E0F8A32D
:1048D000E0F92274F7121A07EAFEEBFF8908900349
:1048E0000612472F12132FEA5402600BA908EEFAA2
:1048F000EFFB120873800279017F01021AD974F26A
:10490000121A0774FE121997EAFEEBFF890A740166
:10491000650A60147402650A60030249AD790112E8
:104920000C09E960030249ADEEFAEFFB1209C9EA8E
:104930004B60031209CFA818A919880889097808BB
:10494000121C1A7508027509007808121C1A7508DD
:104950009E75098F7808121C1A7CFF7DFF7A017BF7
:104960000012087974061219AD803885088285090D
:1049700083A3A3A3A3A3A31249B7EEFAEFFB1213D9
:1049800017E4F50CF50D780C121C1A74021219E3D9
:10499000121C317CFF7DFFAA08AB09120885740444
:1049A0001219AD8A088B09E508450970BE74021218
:1049B00019AD7F06021AD9123C521249BE22E0FC00
:1049C000A3E0FD2274F4121A078A088B09ECFEEDAD
:1049D000FF901B02E0F4604B7A097B00121407EA97
:1049E0004B60408A828B8374B1F0A3E4124A26F0B4
:1049F0008A828B83A3A3E508F0A3E509124A26A3C4
:104A0000EEF0A3EFF0740C1219E31248C98A828BFE
:104A100083A3A3A3A3A3A3A3123E43901B02E0F985
:104A2000121413022D7EF08A828B83A3A3A3A322E8
:104A300074F0121A0774FA1219978909ECFEEDFF47
:104A40007508008A0A8B0B780A121C5E0004105647
:104A50004C734A914AAB4AC34AE14AF94A1C4B3467
:104A60004B484B724BED4BFE4B154C304C564C5655
:104A70004C884B740165096003024C518E828F8310
:104A8000E0F8C394034003024C51E8901B25024C0C
:104A90002D740265096003024C518E828F8312547B
:104AA00002901B26E8F0A3E9024C2D740165096011
:104AB00003024C51124C834003024C51E8900724EE
:104AC000024C2D740165096003024C518E828F8364
:104AD000E0F8C394054003024C51E8900725024CCE
:104AE0002D740165096003024C51124C834003028E
:104AF0004C51E8900726024C2D74106509600302A2
:104B00004C51750A10750B00780A121C1A7A277B13
:104B1000071213E374021219AD024C777401650990
:104B20006003024C51124C834003024C51E8900741
:104B300037024C2D740165096003024C518E828F3F
:104B400083E0901B29024C2D740465096003024C1C
:104B5000518E828F83780C12185B908F50780C12D4
:104B6000168E5003024C51900739780C12186A02C5
:104B70004C77E96003024C5112081FE970051212CC
:104B8000D580559007CC8061740765096003024C9D
:104B900051750A06750B00780A121C1A8E828F83D3
:104BA000A3AC82AD8374021219F51213E9740212D8
:104BB00019AD7C007D00AA18AB198E828F83E0F9B5
:104BC00012127BE9FEC3940A4003024C7412081FC0
:104BD000E9700CEEF91212DB7950121527806D7412
:104BE000CD2EF582E43407F58374018040740165AD
:104BF00009705E124C835059E8900738802F740179
:104C00006509704D8E828F83E0F8C3940A5042E8A4
:104C1000901B2880187401650970368E828F83E09E
:104C2000F874F928C3940A5028E8901B2AF08047AA
:104C300074016509701B9007CBE0F88E828F83E0CA
:104C40009007CBF0E87030E06401702B1212C9803D
:104C5000267508188021C3EA9427EB940050157438
:104C6000026509700F8E828F83125FDA12069FE948
:104C7000F5088003750802A90874061219AD7F08AB
:104C8000021AD98E828F83E0F8C3940222A9088089
:104C9000031219AD7F04021AD974F0121A0774B105
:104CA0001219978C0A8D0B908EEC74201219FD74DA
:104CB000061218AA74201219FD12127BE9FF745F04
:104CC0001219E3E0F509EFC3940A4003024E1B7585
:104CD000F006EFA4F50874411219FD7A0E74202530
:104CE00008F9121521E97009744D1219E3E0FE80EC
:104CF000027E00901B25E064027005750E018003A2
:104D0000750E0074086509700474228002742125F0
:104D100008F50D7C1B7D00790074261219F512131D
:104D2000FB74261219FD7A1BA90D121521E9702DAD
:104D300074401219E3E024F9C3940A5020E50EF5FB
:104D40000D780D121C1E74271219FDEEA2E0E4333B
:104D5000F9AA0AAB0B12074174011219AD7C147D3C
:104D6000007900740C1219F51213FB740C1219FD62
:104D70007A1074242508F9121521E970347C107911
:104D8000FF740C1219F512145BE97025741C1219CA
:104D9000E3AC82AD837A0474252508F912152174D9
:104DA0000C1219FDEEA2E0E433F9AA0AAB0B1207CC
:104DB00029AC18AD197A0C74702FF9121521E9700D
:104DC00049AA18AB191212B17F00EF75F003A4F8CD
:104DD000A9F0851882851983E58228F8E5831255A4
:104DE000B6125797601D88828983A3A3E0F50E75DC
:104DF0000F00780E121C1AAA0AAB0B1209E77402F4
:104E00001219AD0FEFC3940440C0EEA2E1500C9014
:104E10000723E0F9AA0AAB0B1209ED7404650970C7
:104E200028901B25E0640270207800900737E0602E
:104E3000027801900724E060057404488001E8FED0
:104E4000EEF9AA0AAB0B1207F57900744F024C7BFE
:104E500074F7121A0712081FE9704F9007CCE0642C
:104E60000170151212D59007CCE4F07C0AFDF97A96
:104E7000CD7B071213FB802A750800A80874CD2883
:104E8000FEE43407FF8E828F83E06401700BA90873
:104E90001212DB8E828F83E4F00508E508C3940AC2
:104EA00040D979501215271212C90258CF74F01246
:104EB0001A0774F0121997EAFEEBFF8C088D09753A
:104EC0000A0AE9600C14600914603B14607D024F0B
:104ED000A31212C3E9F50AC3940A4003024FA3E5E3
:104EE0000845097003024FA3750C06750D00780C78
:104EF000121C1AEEFCEFFDAA08AB091213E37402B0
:104F00001219AD024FA3750C00750E06750F0078CF
:104F10000E121C1AEEFCEFFDE50C75F00EA4F8A9BC
:104F2000F0744528FA740739FB1213F5740212194C
:104F3000ADE9700B050CE50CC3940A506680CA8578
:104F40000C0AE50AC3940A505A8049750C00AC1843
:104F5000AD197A1075F006E50CA42423F912152179
:104F6000E9701C7C1079FFAA18AB1912145BE97068
:104F70000EEEFCEFFDAA18AB19120705E9600B0550
:104F80000CE50CC3940A501B80C4850C0AE50AC3C7
:104F9000940A500FE50845096009AA08AB09A90A57
:104FA0001212BDA90A7410024C7B74F4121A0789FC
:104FB0000975081574FF6A700374FF6B70277E0013
:104FC000AC097A027B00EEF912129FE960037508C2
:104FD000000EEEC3940A40E8E50960537AED7B12B7
:104FE000120C2D804A120BFD8A0A8B0BAE0AAF0BF6
:104FF000EE4F60387C007D00EE2405FAE43FFB8E26
:10500000828F83A3A3A3A3E0F912127BE9F9C394CF
:105010000A500CAC097A027B0012129F750800E559
:1050200009600CEEFAEFFB1212ED80037508140212
:105030004C8D74F2121A07ECFEEDFF750815740E14
:105040001219E3E0F50AA3E0F50B74FF6A7003742C
:10505000FF6B7021750900AC0AAD0BEEFAEFFBA9EE
:10506000091212A5E960037508000509E509C39452
:105070000A503F80E2120BFD8A828B83E5824583D2
:10508000602D7C007D00E5822405FAE43583FBA3D6
:10509000A3A3A3E0F912127BE9F9C3940A5013AC5D
:1050A0000AAD0BEEFAEFFB1212A57508008003752E
:1050B0000814A908025DD2C082C08390073DEAF0BF
:1050C000A3EBF0900723E0FC7D007A267B0012061C
:1050D0009F900723E0F912095D025C7A74EC121AC2
:1050E000078A088B09E97E0070387808121C1A7448
:1050F000161219E3780C12185B908F507810121862
:105100005B780C791012172DAA10AB11AC12AD13ED
:1051100012073B74021219ADE9FE60097901AA0871
:10512000AB09120735EEF97F0C021AD974EE121A88
:105130000774EC1219978A088B09EA240CF510E41D
:105140003509F5118A828B83A385820C85830DEA4C
:105150002405F50EE43509F50FEA2409F50AE435CE
:1051600009F50BEA2403FEE43509FF8A828B83A349
:10517000A3E024FA70030253F024FD7003025310DD
:1051800014700302520A14601024FD70030252F3DB
:105190001470030253480253F6125FE06044E0F5D6
:1051A000838882125402880C890DE8450D6033858E
:1051B0001082851183E0F50E780E121C1EEA240B76
:1051C000F582E43509F583E0F9125FD40A0A0AEFA3
:1051D000FB850C82850D83121A0574011219AD022C
:1051E00053F6850A82850B83121C319007391218F9
:1051F0007912073B74021219ADE970030253F67974
:1052000001850A82850B830253C0750A00850C82D2
:10521000850D83E060030252C0850E82850F83E016
:10522000A2E040030252C09007D7125FE36003027E
:1052300052C07C0E7D007900AA18AB191213FB85B1
:105240001082851183125C45EA4B6010750A067561
:105250000B00780A121C1AEA2410801B125C4112FF
:105260000BFDEA4B70030253F6750A06750B0078C6
:105270000A121C1AEA2405FCE43BFD74021219F51B
:105280001213E374021219AD850E82850F83E0A21A
:10529000E25004D2F08002C2F0A2F0E433F8740CC1
:1052A0001219E3125DE51212B7E970117A027B0060
:1052B000900723E0F912143779000253F8750A15A4
:1052C000125FE070030253F612541770030253F694
:1052D000850C82850D83E0FC7901125408121A05B1
:1052E000E50A70030253F6FC7903125C41125C017B
:1052F0000253EB125FE070030253F612541770036F
:105300000253F6850C82850D83E0FC79020253E896
:105310007C007D00EA2404FAE43509FB8E828F8349
:10532000E0F912127BE9F8C3940A40030253F6E550
:1053300008240AFCE43509FD7A0475F006E8A42483
:1053400025F912151B0253F6125C41900738E060F4
:1053500007901B28E0F9806B901B25E0700479050D
:105360008061120BFD8A0C8B0DA80CA90DE8497009
:10537000030253F6E82404F50CE439F50D850882A0
:10538000850983A3A3A3A3A3A3A3E0A2E050398527
:105390000C82850D83E0F508602E850A82850B83DB
:1053A000A3E054027022740E1219FDE82405FAE4F9
:1053B00039FBA90812127BE9700E79038E828F8364
:1053C000125C45120735802EAC0EAD0F850C828520
:1053D0000D83E0F9125C411212F9125FE0601712BE
:1053E000541760127C007900125408121A058006C6
:1053F000125C41121275790174141219AD7F0A0200
:105400001AD9E0F8A3E0F9228E828F83E0FAA3E0B4
:10541000FB888285098322125C0FF98909E8450916
:105420002274F5121A0774F2121997EAFE8C0A75A3
:10543000F006E9A42420F508AC18AD197A0EF9128B
:105440001521E970467C0679FFAA18AB1912145B86
:10545000E97038740C1219E3125C45EAF8E50A6049
:1054600005EEC8488004EEF4C858F8EA687001EB0D
:105470006015740C1219E3E8F0A3E4F0AC18AD1950
:105480007A0EA90812151B790180027900740E1298
:1054900019AD7F03021AD974F2121A0774E61219B1
:1054A00097890A8A088B09ECFEEDFF740C1219FD2E
:1054B0007A0E75F006E9A42420F9121521E960039B
:1054C00002557C7C0679FF740C1219F512145BE905
:1054D000600302557C7470250AF50BAC18AD197A7F
:1054E0000CF9121521E96003025578AA18AB1912BC
:1054F00012B1E5084509701D7C0C7900AA18AB199A
:1055000012145BE970727C0C7D007900AA18AB194B
:105510001213FB8051AC18AD19AA08AB091212ABDB
:105520008A0C8B0DA80CA90DE8497022EE4F604C37
:10553000AC18AD197A007B001212ABEAF8EBF9EA6D
:105540004B603988828983E508F0A3E509F012559C
:10555000F2FAEE6A7001EF601FEEF04F7008888279
:105560008983E4F0A3F0AA18AB191212B1AC18ADFC
:10557000197A0CA90B12151B790180027900741A93
:10558000025DCF74F7121A077E00EE75F003A4F8DF
:10559000A9F0EC28F8ED1255B6E06A7003A3E06BB1
:1055A0007006E8FAE9FB800B0EEEC3940440DB7A48
:1055B000007B000258CF39F9888289832274F71260
:1055C0001A077C00EC75F003A4F8A9F0EA28F8EBC0
:1055D0001255B6E0F4FEA3E0F4FF88828983EEF072
:1055E000A3EFF01255F2F4F00CECC3940440D50292
:1055F00058CFE82402F582E439F583E02274F412EE
:105600001A0774F4121997EAFEEBFF8C088D0990C3
:1056100007D7125FE3704FEE4F7003025776EC45E9
:105620000970030257761212C3E9901B2BF0C39442
:105630000A4033750B007C0679FFE50B75F00EA46C
:10564000FAABF0743F2AFA74073BFB12145BE96073
:10565000030256D7050BE50BC3940A40D9750A0A15
:10566000E50A901B2BF0901B2BE0C3940A40030229
:10567000577675F006E0A4FB9007D7125FE3705CE5
:10568000EEFCEFFD7A0E74202BF912151B7C0C7DBD
:105690000079FFAA18AB191213FBAC18AD197A0CDC
:1056A000901B2BE02470F912151B750A0E750B0068
:1056B000780A121C1AEEFCEFFD901B2BE012582FFB
:1056C0001213E374021219AD9007D7E508F0A3E5B1
:1056D00009F07900025778850B0A8084E0C8240617
:1056E00012579160197A1B74212BF912151B12574E
:1056F0007D2406F582E438F583E4F0A380D31257C5
:105700007D240A12579160107A1B74222BF912150E
:105710001B12577D240A80DB12577D240C125791EF
:1057200060107A1074232BF912151B12577D240C6C
:1057300080C112578612579160307A1074242BF969
:1057400012151B125786F582E438F583E02410FC0D
:10575000A3E03400FD7A0475F006901B2BE0A4242E
:1057600025F912151B12578680899007CBE060033C
:105770001213051212F37901740C024C919007D7A1
:10578000E0F8A3E0C8229007D7E0F8A3E0C8240817
:1057900022F582E438F583125FDAEC4D2274F412BC
:1057A0001A0774F2121997EAFEEBFFE9C3940A5044
:1057B00004EE4F700479028034AC18AD197A0E757E
:1057C000F006E9A42420F9121521E9F508701C75EA
:1057D0000A06750B00780A121C1A74021219FDEEE3
:1057E000FAEFFB1213E374021219ADA908740E024A
:1057F0004C9174F4121A07EAFEEBFF750800750A63
:1058000006750B00780A121C1AEEFCEFFDE5081273
:10581000582F1213F574021219ADE96004A908801B
:105820000B0508E508C3940A40D4790A024C947524
:10583000F00EA4F8A9F0743F28FA740739FB22741B
:10584000F7121A07750800E50875F00EA4F8A9F01C
:10585000743F28FE740739FFEEFCEFFD7A0E75F0F9
:1058600006E508A42420F9121521E960297C067DAB
:105870000079FFEEFAEFFB1213FB7C067D0079FF47
:10588000EE2CFAE43FFB1213FBEE240CF582E43F0E
:10589000F583E4F0A3F00508E508C3940A40A89056
:1058A00007CBE060031213051212F3802274F71283
:1058B0001A077E007F007C06EF12582F74FFF91242
:1058C000145BE970010E0FEFC3940A40E9EEF97F13
:1058D00001021AD974F7121A077E00EEF91212DBD0
:1058E000E9F90EEEC3940A5003E960EF80E174F326
:1058F000121A0774CB1219978908901B2BE06508C0
:10590000701B7A017B00900723E0F912143D7A02A4
:105910007B00900723E0F912143D121311901B2C09
:10592000E0650870127A047B00900723E0F91214F6
:105930003D901B2C740AF075F006E508A4FF742056
:105940002FFE74271219FD7A0EEEF9121521E96067
:1059500003025A107C0679FF74271219F512145BA2
:10596000E96003025A107C0E7D0079FF742712193A
:10597000F51213FB7C1B7D0079FF740C1219F512D4
:1059800013FB7C0C7D0079FFAA18AB191213FB7472
:10599000271219FD7A0EEEF912151BE9FE740C128E
:1059A00019FD7A1B74212FF912151BE9F509740CE6
:1059B0001219FD7A1B74222FF912151BE9F50A74CE
:1059C0000C1219FD7A1074232FF912151BE9F50B2F
:1059D000740C1219FD7A1074242FF912151BE9F5B5
:1059E0000C740C1219FD7A0474252FF912151BE999
:1059F000FFAC18AD197A0C74702508F912151BE963
:105A0000F8E509450A450B450C4F48CE4EFE80028D
:105A10007E00EEF974351219AD7F05021AD974F7BC
:105A2000121A07E9900723F01212C97A2D7B1B1274
:105A300008490258CF74F2121A0774F2121997EA41
:105A4000FEEBFF54807003025AFA900723E0F9122C
:105A5000141F8A088B09EA45097003025AF27A0179
:105A6000E5082405F50AE43509F50BE5082404F8F2
:105A7000E43509F9880C890D8508828B83E0245070
:105A8000603614600624E16058805D88828983E076
:105A900070598508828B83A3A3A3A3A3A3A3121C7D
:105AA00031125FD48508828B83A3A3125C45121246
:105AB0008774021219AD803388828983E0641E7076
:105AC0000F79008508828B83A3A3125C4512128193
:105AD000850C82850D83E0F9AA0AAB0B1209578069
:105AE0000AAA08121299E9FAEA6007AA08AB091291
:105AF000140DEEFAEF6480025BF5EE54026026EEC0
:105B00006402FE7C007D007A007B001212B7E9601F
:105B1000047A0180027A027B00900723E0F91214D4
:105B200037EE025BF3EEA2E050556401F508EFF5A5
