:020000040000FA
:0600000002011A02235563
:030013000229F0CF
:03002B000229C7E0
:03003B00022A5640
:030053000223CBBA
:03007B00022AABAB
:100083000221ABE5C754F84401F5C779012200000A
:100093000080FB120086B90003020104E479217891
:1000A30008B800028004F709D8FCE479297802B87B
:1000B30000028004F709D8FCE490028178C2791821
:1000C3008002F0A3D8FCD9FA781A90014A7A01BACF
:1000D30000028007E493A3F608DAF97A427B1A90C8
:1000E300014B789C79058015E493A3AD82AE838A96
:1000F300828B83F0A3AA82AB838D828E83D8E9D9C6
:10010300E77582907583BB740312012C7582917518
:100113008300740012012C75D00075814F7518810E
:10012300751902759F00020096C09FF59FE473D076
:100133009F22D083D082C09FE493C0E0740193C018
:10014300E0740293F59F2201FF0000B40000280031
:100153002800283075A000A000A000A0000008001F
:1001630008E001F000100010001000100010001053
:100173000050005000500010001000D00700000095
:100183000000000F0001000500307507001000019A
:100193000081FF00000000FFFFFF080826080E088B
:1001A3004A08FF02020208025000A0000000E80310
:1001B30002BE8F010000908F02A28F0100009D1AE2
:1001C300029C8F010000BF0202A28F0100009E1A51
:1001D300029A8F010000D50202A28F0100009F1A2C
:1001E30002DA8F010000D70202A28F010000A01AD9
:1001F30002968F080000D80202A28F010000A11A04
:1002030002988F010000A21AFF0100FF1700F20EEF
:10021300F20EF20EF20EF20EF20EF20EF20EF20EDB
:10022300F20EF20EF20EF20EDA11EC11D41101E815
:10023300030577100A0A4813FFFFFF000130750317
:1002430002010600000000000000000000000000A2
:10025300000000000000000000000000000000FF9C
:10026300FF0600800CE8030201050C09504D4420F1
:1002730052322D3030303000000000000000000CFE
:1002830009504D442052322D3030303000000000F0
:100293000000004F4C503432352D303030300000E8
:1002A30000000000000000004F4C503432352D3068
:1002B3003030300000000000000000000024160071
:1002C300001216181642160A4669726D7761726536
:1002D3000052656E616D65004669727374204E61EC
:1002E3006D65005375726E616D650047656E64657B
:1002F300720044617465206F6620426972746800FD
:1003030044617465206F662041646D697373696F1E
:100313006E00426564204E756D62657200526F6FA8
:100323006D204E616D652F4E756D6265720057616C
:100333007264204E616D652F4E756D6265720002A9
:10034300BE8F010000938F02A28F010000C11B0228
:10035300A88F030000511002A08F010000C21B02EE
:10036300A28F010000C11B02AA8F030000551002D7
:10037300A08F010000CB1B02A28F010000C11B0252
:10038300AC8F030000691002A08F010000D21B0292
:10039300A28F010000C11B02AE8F0300007D10027B
:1003A300A08F010000DD1B02A28F010000C11B0210
:1003B300B08F030000911002A08F010000E51B0223
:1003C300A28F010000C11B02B28F03000092100232
:1003D300A08F010000EC1B02A28F010000C11B02D1
:1003E300B48F030000951002A08F010000FA1B02D6
:1003F300A28F010000C11B02B68F030000981002F8
:10040300A08F0100000C1C02A28F010000C11B027F
:10041300B88F030000991002A08F010000171C027F
:10042300A28F010000C11B02BA8F030000AD1002AE
:10043300A08F010000281C0A124C6174657374209C
:1004430044617461005468726573686F6C6473000F
:1004530053696C656E636520416C61726D004D611B
:10046300696E74656E616E6365005472656E6420B7
:1004730052522044617461005472656E642041637A
:10048300742F506F732044617461005374726561FB
:100493006D696E670053747265616D696E672043A1
:1004A3006F6E666967004572726F7220436F646591
:1004B3007300436F6E6E656374696F6E20546F6E65
:1004C300650053657474696E67730002BE8F010023
:1004D30000D58E02A28F010000311D02C48F0300DC
:1004E30000F61902A08F010000331D02A28F010044
:1004F30000311D02C68F030000FE1902A08F010008
:10050300003F1D02A28F010000311D02C88F0300AE
:1005130000001A02A08F0100004A1D02A28F0100F1
:1005230000311D02CA8F030000011A02A08F0100CF
:1005330000581D02A28F010000311D02CC8F030061
:1005430000021A02A08F010000641D02A28F0100A5
:1005530000311D02CE8F030000161A02A08F010086
:1005630000721D02A28F010000321D02D08F030012
:10057300002A1A029E8F0300003E1A02A08F010078
:1005830000851D02A28F010000311D02D28F0300DE
:1005930000381A02A08F0100008F1D02A28F0100F4
:1005A30000311D02D48F030000391A02A08F01000D
:1005B30000A01D02A28F010000311D02D68F03008F
:1005C30000F31902A08F010000AC1D02A28F0100ED
:1005D30000311D02D88F0300003C1A02A08F0100D6
:1005E30000BC1D1201353F9D03120135529D0312BC
:1005F3000135839D03120135BD9D03120135169EFE
:10060300031201355D9E03120135A59E03120135C8
:10061300D49E03120135039F031201353A9F03123F
:100623000135819F031201359A9F03120135EF9F14
:100633000312013508A00312013556A00312013538
:1006430090A003120135D7B902120135DABA0212AA
:10065300013513BB0212013536BB0212013548BB0B
:100663000212013586BB0212013502BC02120135AA
:10067300CABC02120135ECBC0212013583BD021261
:100683000135D5BD0212013506BE0212013513BE76
:10069300021201357DBE02120135D4BE02120135AC
:1006A300D7BE0212013510BF0212013513BF021269
:1006B30001351DBF0212013571BF02120135B2BFF0
:1006C30002120135E5BF0212013522C002120135C3
:1006D30024C102120135C8C10212013531C202120E
:1006E30001356FC2021201358B9103120135B391AB
:1006F30003120135E09103120135189203120135FB
:10070300769203120135C292031201352993031223
:100713000135699303120135A69303120135D4936E
:10072300031201357E9403120135889403120135B7
:10073300959403120135C89403120135D49403121E
:100743000135EC9403120135F6940312013586B793
:100753000312013594B703120135ACB70312013507
:10076300C3B7031201351DC801120135C7C80112F1
:100773000135DAC90112013556CA0112013574CBAC
:1007830001120135B0CB011201354BCC01120135F9
:100793002FCD01120135FBCD0112013589CF011295
:1007A3000135FACF01120135B4D001120135A6D1BA
:1007B30001120135E6D1011201359AD20112013538
:1007C300CCD201120135C2D40112013504D5011274
:1007D300013522D50112013588D50112013557D6CD
:1007E300011201351BD7011201353AD90112013526
:1007F300AFD90212013599DA0212013544DB021234
:10080300013595DB0212013545DC02120135B6DCF8
:10081300021201359BDD02120135CFDD02120135D3
:10082300C8DE0212013505DF02120135E1DF0212D3
:10083300013520E0021201353CE002120135B1AA74
:100843000312013535AB0312013560AB03120135D9
:100853007AAC031201358495031201359A9503127C
:100863000135B89503120135C99603120135D396A4
:1008730003120135FE9703120135F5980312013572
:10088300629903120135B2FD02120135E2FE021232
:1008930001355CFF021201356FFF0212013535A3EA
:1008A30001120135C1A30112013525A5011201353C
:1008B30031A5011201356CA501120135DBA5011229
:1008C3000135E4A601120135EDA701120135B4A8E3
:1008D3000112013511AA011201352FAA01120135A6
:1008E3004CAA01120135F9AA0112013576AB0112A6
:1008F30001359EAB0112013568AE011201356DAEB3
:100903000112013586B001120135D4B0011201354F
:1009130044B10112013582B1011201355EB20112F7
:1009230001351EB3011201356AB3011201356DB3EE
:1009330001120135B1B301120135F9B301120135C9
:1009430038B4011201355AB4011201358EB40112C3
:100953000135F1B40112013510E6021201351EE62C
:100963000212013571E60212013590E602120135D9
:10097300D5E60212013519E802120135B4E8021274
:100983000135F8E80212013522E90212013591E935
:1009930002120135D7E9021201354EEA021201357E
:1009A300FFEA02120135E02A00120135F02A001293
:1009B3000135912B00120135ED2B00120135AA2CC4
:1009C30000120135CB2D00120135FA2D001201352D
:1009D300A72F001201351E32001201358E3400128A
:1009E3000135803500120135793600120135803822
:1009F30000120135743B00120135A33C001201358E
:100A0300A73E00120135B73F0012013546410012DF
:100A13000135374200120135854200120135F44297
:100A230000120135184300120135B9470012013590
:100A3300BA48001201351B4900120135464900121C
:100A430001350C4A0012013584F4021201358EF48B
:100A530002120135D3F402120135E7F40212013513
:100A630077F502120135B0F502120135EBF50212EA
:100A7300013514F60212013568F6021201357DF6CE
:100A8300021201359FF602120135B4F60212013546
:100A9300C8F602120135DDF60212013517F702120C
:100AA300013543F70212013571F702120135BCF724
:100AB300021201355CF8021201359FF8021201356A
:100AC300C9F802120135F4F8021201359FB303127B
:100AD300013551A60212013534A702120135AFA721
:100AE30002120135EAA7021201353BA902120135B0
:100AF300C9A9021201355BAC021201350DAD021218
:100B0300013519AE021201358CAF02120135E5AF82
:100B130002120135F988031201353C8903120135AC
:100B2300C08903120135978C031201353DA60312C8
:100B33000135EFA603120135EBA7031201352AA8ED
:100B43000312013584A8031201357DAE031201356A
:100B5300E0AE031201357DAF03120135B2AF0312CC
:100B63000135E2AF031201351DB0031201353DB06B
:100B730003120135D0EF021201355CF00212013588
:100B83001BF10212013533F2021201354DF4021248
:100B93000135CD9A02120135F29A02120135BF9B3B
:100BA30002120135939C02120135009D0212013598
:100BB300409D02120135DC9D02120135109F021285
:100BC3000135EB9F021201354AA002120135D6A06E
:100BD3000212013544A102120135D0A102120135DE
:100BE30016A20212013588A2021201351AA30212BB
:100BF3000135BBA302120135DBA30212013523A485
:100C0300021201356CA40212013588A402120135C7
:100C1300AEA40212013528A50212013536A502122F
:100C23000135C5A5021201352EA6021201351CF9A4
:100C330002120135A1F902120135E3F9021201355D
:100C4300C7FA0212013534FB0212013578FB021296
:100C53000135BCFB02120135E9FB0212013511FC1F
:100C63000212013549FC0212013587FC02120135DB
:100C7300AEFC0212013528FD0212013572FD02128B
:100C83000135DD8F01120135859101120135B293D2
:100C93000112013506940112013531940112013517
:100CA3000395011201354795011201358B95011208
:100CB30001359E9501120135DF95011201350C9620
:100CC300011201355A96011201359B960112013525
:100CD300C996011201351C9701120135B397011210
:100CE30001359D9A01120135B39C01120135F19C26
:100CF30001120135849E01120135C99E011201358D
:100D03003B9F011201358C9F01120135C69F0112D1
:100D13000135CB9F0112013578A001120135CBA11A
:100D23000112013501A30112013512A3011201358C
:100D33000FF6011201358EF60112013587FC0112FF
:100D430001358DFD0112013500FF0112013597FFB9
:100D530001120135586000120135A16000120135FE
:100D6300CE60001201350061001201350D610012E1
:100D730001351961001201352B610012013506623C
:100D830000120135646200120135996200120135C7
:100D9300D063001201351D64001201354164001255
:100DA3000135B164001201357265001201353566F3
:100DB30000120135A3660012013560670012013588
:100DC300736700120135F167001201358468001260
:100DD3000135AB68001201351369001201356469EE
:100DE30000120135B96900120135626A001201353A
:100DF3000D6B00120135B96B001201352B6C00121B
:100E030001357F6C00120135DF6C001201350F6D67
:100E130000120135A56D00120135CA6E00120135AD
:100E2300126F001201352F6F001201354E6F001241
:100E330001357D6F00120135927000120135187172
:100E4300001201353D710012013552710012013556
:100E5300C5710012013506720012013522730012AA
:100E63000135C373001201351174001201357B740F
:100E7300001201359474001201358EB0021201354F
:100E8300E2B002120135EEB002120135B8B102121E
:100E93000135E5B10212013513B2021201357FB2F9
:100EA30002120135B5B202120135EEB2021201355A
:100EB30006B3021201355BB30212013574B3021299
:100EC3000135B9B302120135CCB302120135E6B3D1
:100ED30002120135FCB3021201351AB502120135B3
:100EE30045B6021201352FB7021201351EB80212A0
:100EF3000135F27F00120135888D02120135B78D5D
:100F0300021201357D9102120135D492021201358C
:100F13009A9302120135199502120135E3950212D3
:100F230001353596021201354F960212013581962D
:100F3300021201358C9602120135D5960212013543
:100F4300DE96021201358A97021201356398021266
:100F53000135AA98021201351299021201355499EA
:100F630002120135829902120135BD99021201352F
:100F7300C9B50112013547B9011201354DB9011245
:100F83000135A2BF01120135ECC301120135D2C7ED
:100F9300011201356C9903120135E29903120135EF
:100FA300F89903120135889A03120135C59A031281
:100FB3000135FF9A03120135399B03120135AC9BAE
:100FC30003120135ED9B03120135F69B0312013524
:100FD300029C03120135219C031201354B9C031221
:100FE3000135609C03120135889C03120135EA9C8C
:100FF30003120135119D0312013511EB0212013564
:1010030024EB021201353EEB021201356BEB0212A7
:101013000135B1EB02120135E4EB0212013522EC8A
:101023000212013587EC021201359CEC02120135E4
:10103300A7EC02120135B4EC02120135CBEC02121B
:101043000135D9EC02120135E4EC02120135F0EC62
:101053000212013503ED021201350EED02120135C4
:1010630031ED02120135D5ED02120135E5ED021223
:101073000135FFED021201351CEE0212013537EE88
:10108300021201355CEE0212013567EE02120135E0
:101093007CEE0212013590EE02120135F1EE0212DE
:1010A3000135F7EE02120135FDEE0212013503EFB1
:1010B300021201351BEF021201354EEF0212013508
:1010C3000580021201359C8002120135348102121F
:1010D30001352482021201355B82021201356E82D0
:1010E30002120135DC8202120135778402120135C6
:1010F3009E84021201354085021201357585021264
:101103000135868502120135FF85021201352086DD
:101113000212013538860212013590870212013519
:10112300998902120135E98B02120135EC8C021206
:1011330001353B8D0212013547D90112013544DADD
:10114300011201352FDB0112013539DB01120135A3
:101153005BDB0112013567DB01120135B9DC0112DA
:101163000135E8DC0112013518DE011201355ADEC2
:101173000112013586DF011201355CE001120135F0
:10118300AEE0011201350DE10112013544E1011216
:1011930001357FE1011201351AE50112013533E50D
:1011A30001120135B5E501120135C3E5011201351F
:1011B30018E60112013526E60112013593E6011204
:1011C300013505E7011201354BE701120135C474FE
:1011D30000120135E67400120135D0760012013594
:1011E300757A00120135B87B00120135927C00122A
:1011F30001354BB00312013570B003120135E1B074
:101203000312013595C2021201359EC20212013545
:10121300A7C202120135D8C302120135F7C5021263
:1012230001352DC60212013567C6021201359DC66E
:1012330002120135D7C6021201350BC7021201355E
:1012430037C70212013580C702120135BAC702122D
:10125300013502C80212013558C8021201358DC882
:1012630002120135E8C80212013522C90212013502
:1012730073C902120135A9C902120135E3C9021269
:10128300013511CA0212013534CA02120135CFB930
:1012930003120135FBB90312013556BA03120135A6
:1012A30060BA0312013570BA0312013550BC031240
:1012B3000135784A00120135E14C00120135984E90
:1012C30000120135F54E00120135F24F00120135BF
:1012D3007A5000120135FF500012013524510012DB
:1012E3000135745100120135695400120135DF5480
:1012F30000120135CB550012013505560012013598
:10130300455600120135E557001201353A580012CF
:101313000135875800120135F558001201351C5963
:1013230000120135365900120135665A0012013593
:101333007D5A00120135735C00120135935C001273
:101343000135C95C00120135395E00120135B95E01
:1013530000120135F85E00120135336000120135C9
:10136300008003120135588003120135A081031256
:1013730001350F8203120135BE8203120135DD826E
:10138300031201353183031201356F8303120135D3
:10139300DBFF02120135F57F00120135EDFF01126B
:1013A300013553B80312013563B80312013575B81B
:1013B3000312013506B903120135B3B40312013523
:1013C30037B5031201359DB503120135ECFF021247
:1013D3000135C5FF02120135D5FF02120135D8FFD1
:1013E30002120135F87F00120135A9AC0312013551
:1013F30019AE031201357AAE0312013513B9031284
:101403000135A9B903120135C1B903120135ADB6CE
:1014130003120135D6B603120135FFB603120135A7
:1014230041B7031201359DE002120135A7E0021214
:101433000135E7E00212013530E1021201356AE1BC
:1014430002120135C0E102120135DFE1021201355A
:10145300E8E10212013539E20212013562E20212B9
:10146300013577E202120135E7E20212013575E335
:1014730002120135B9E302120135E1E3021201352B
:1014830060E402120135A3E402120135E0E4021222
:101493000135F2E40212013511E5021201351AE5B4
:1014A30002120135E4E50212013501B203120135DE
:1014B30052B203120135DBB20312013541B30312F9
:1014C3000135F8A00312013522A10312013517A239
:1014D3000312013546A203120135CCA203120135D2
:1014E300B6B503120135F1BB03120135AFA80312E0
:1014F3000135E5A8031201351EA90312013577AAA8
:10150300031201357ABA0312013590BA0312013579
:101513009ABA03120135F0BA03120135C2CA021294
:1015230001357FCB02120135BACB02120135E2CB72
:101533000212013544CC0212013590CC021201355E
:10154300FBCC0212013577CD0212013573CE0212A4
:101553000135FACF021201357DD002120135E1D0F7
:1015630002120135F8D002120135EED10212013513
:101573003AD2021201358184031201359684031293
:1015830001354685031201358685031201359F8592
:1015930003120135D285031201351F86031201356B
:1015A300538603120135958603120135938803127E
:1015B3000135D4E7011201358BEB011201351DED25
:1015C3000112013574ED0112013593ED011201355C
:1015D30011EE01120135A3EF0112013587F001125B
:1015E300013598F4011201356CF50112013521BB67
:1015F300031201355EBB031201356FBB03120135C4
:101603007DBB03120135498D03120135888D031209
:101613000135C98E03120135E08E03120135FA8EAE
:10162300031201357D8F0312013508900312013532
:101633003490031201350F910312013562910312A5
:101643000135889103120135B7A303120135DEA3D7
:1016530003120135E2A4031201350EA6031201356C
:1016630098D202120135F0D2021201350DD30212C3
:101673000135CBD40212013571D602120135FCD6E5
:1016830002120135C8D8021201353CD902120135C4
:1016930091D902120135C1FF01120135D47F00E057
:1016A30066701008A3E066700A08A3E06670040879
:1016B300A3E06622C3E7960809E7960809E79608B8
:1016C30009E79622C3E09608A3E09608A3E09608EC
:1016D300A3E09622C008C3E096F50808A3E096426B
:1016E3000808A3E096420808A3E09645087001D3D2
:1016F300D00822080808EAC0E0EBC0E086F0E7A4BF
:10170300FA180986F0E7A42AFA180986F0E7A42A4A
:10171300FA180986F0E7A42AFA1986F0E7A4FBE58C
:10172300F02AFA190886F0E7A42BFBE5F03AFA1938
:101733000886F0E7A42BFBE5F03AFA18180986F0BF
:10174300E7A4C5F02BFBE43AFA1908E7C5F0C6A4F1
:1017530026F6E5F03BFBE43AFA1886F0E7A4F6E553
:10176300F00826F6E43B08F6E43A08F6D0E0FBD0AE
:10177300E0FA22E4CFC0E0E4CEC0E0E4CDC0E0E490
:10178300CCC0E075F020E626F608E633F608E6332B
:10179300F608E633F6181818EC33FCED33FDEE3398
:1017A300FEEF33FFC3EC9709ED9709EE9709EF9727
:1017B300191919400FFFEC97FC09ED97FD09EE97F6
:1017C300FE191906D5F0BFECF709EDF709EEF70995
:1017D300EFF7191919D0E0FCD0E0FDD0E0FED0E01E
:1017E300FF226016080808C6C313C618C613C61816
:1017F300C613C618C613C6D5E0EA2270090808083E
:10180300226016181818C6C333C608C633C608C6DE
:1018130033C608C633C6D5E0EA22E627F60809E64A
:1018230037F60809E637F60809E637F622E026F622
:1018330008A3E036F608A3E036F608A3E036F6225E
:10184300E026F008A3E036F008A3E036F008A3E0B2
:1018530036F022C3E697F60809E697F60809E697F5
:10186300F60809E697F622C3E096F008A3E096F09F
:1018730008A3E096F008A3E096F022E056F608A34A
:10188300E056F608A3E056F608A3E056F622E05623
:10189300F008A3E056F008A3E056F008A3E056F0E2
:1018A30022E0F608A3E0F608A3E0F608A3E0F62298
:1018B300E6F008A3E6F008A3E6F008A3E6F022E0CA
:1018C300FAA3E0FBA3E0FCA3E0FD22E0F8A3E0F928
:1018D300A3E0FAA3E0FB22E8F0A3E9F0A3EAF0A374
:1018E300EBF022CAC0E0E6F0A308DAFAD0E0FA226D
:1018F300CAC0E0E0A3C582CCC582C583CDC583F051
:10190300A3C582CCC582C583CDC583DAE6D0E0CA40
:1019130022C3E498F8E499F91219558026C3E49A8E
:10192300FAE49BFBE920E7E9121955E498F8E499F6
:10193300F922C3E498F8E499F9121955E498F8E404
:1019430099F9C3E49AFAE49BFB22EB20E7CFE92061
:10195300E7E0B90010BB0008E88AF084F8AAF02297
:10196300E4FBC8FA22EB70227B10C833C8C933C921
:10197300335007C39AC3DBF280069A50012ADBEA8D
:10198300C833F4C8C933F4C9FA2275F008E4C8337C
:10199300C8C933C933C99AC99B5004C92AC93BD59D
:1019A300F0ECFBC833F4C8E4C9FA22600D08C6A200
:1019B300E713C618C613C6D5E0F322600C08C6C3E6
:1019C30013C618C613C6D5E0F422700422600D189E
:1019D300C6C333C608C633C6D5E0F418222518108B
:1019E300AF08F518400C15198008F51840021519B1
:1019F300D2AF2200C0D0251810AF08F518500C053F
:101A0300198008F51850020519D2AFD0D022251835
:101A1300F58210AF08F518400C15198008F5184029
:101A2300021519D2AF851983222518F582E43519D9
:101A3300F583222518F8E43519F9222518FAE43537
:101A430019FB222518FCE43519FD22E4732518C57A
:101A530082C0E0E51934FFC583C0E0E518C3958271
:101A630024F810AF088583198582188008858319A7
:101A7300858218D2AFCEF0A3E520F0A37808E6085C
:101A8300F0A3DEFAEFF0A3E58124FAF8E608F0A369
:101A9300E608F0A3E608F0A30808E608F0A3E608C2
:101AA300F0A315811581D0E0FED0E0F815811581F2
:101AB3001581E8C0E0EEC0E0222518C582C0E0E54C
:101AC3001934FFC583C0E0E518C3958224F910AF2C
:101AD300088583198582188008858319858218D221
:101AE300AFCEF0A3E520F0A37808E608F0A3DEFA72
:101AF300EFF0A3E58124FBF8E608F0A3E608F0A3E2
:101B03000808E608F0A3E608F0A315811581D0E0E4
:101B1300FED0E0F815811581E8C0E0EEC0E0228533
:101B23001983851882E0A3FEE0A3F5207808E0A3DB
:101B3300F608DFFAE0A3FFE0A3C0E0E0A3C0E0E023
:101B4300A3C0E0E0A3C0E0E0A3C0E010AF0885823B
:101B5300188583198008858218858319D2AFD083AD
:101B6300D082020132851983851882E0A3FEE0A3A7
:101B7300F5207808E0A3F608DFFAE0A3FFE0A3C0AE
:101B8300E0E0A3C0E0E0A3C0E0E0A3C0E010AF0842
:101B93008582188583198008858218858319D2AFB9
:101BA300D083D08222C0D02518C582C0E0E5193485
:101BB300FFC583C0E0E518C3958224F310AF088501
:101BC30083198582188008858319858218D2AFC846
:101BD300F0A3E9F0A3EAF0A3EBF0A37908E709F097
:101BE300A3D8FAECF0A3EDF0A3EEF0A3EFF0A3D0AB
:101BF300E0F0A3D0E0F0A3D0E0F0A3E520F0A3E56C
:101C0300F0F0A322851983851882E0C0E0A3E0F9F0
:101C1300A3E0FAA3E0FBA37808E0F608A3DFFAE069
:101C2300FCA3E0FDA3E0FEA3E0FFA3E0C0E0A3E08C
:101C3300C0E0A3E0F5D0A3E0F520A3E0A3F5F01006
:101C4300AF088583198582188008858319858218D2
:101C5300D2AFD082D083D0E0F8D0E03274048006D3
:101C6300740280027401C0E0F404121A11D0E0126D
:101C730018E6227404800474028000CCC0E0EDC036
:101C8300E0E518C39CCCAD1950011D10AF068C18AC
:101C93008D1980068C188D19D2AF1218F3D0E0FD80
:101CA300D0E0FC22D083D082E9C0E0E493A3C386D2
:101CB300F0C5F095F0F908E493A386F0C5F095F02C
:101CC300700BE493A3C3994005E9048002A3E47570
:101CD300F002A42582F582E5F03583F583D0E0F99F
:101CE300E493A3C0E0E493C0E022D083D082ECC0AD
:101CF300E0EDC0E0E493A3FCE493A3FDED4C600DA1
:101D0300121D39EC24FFFCED34FFFD80EFE493A3B7
:101D1300FCE493A3FDED4C600D121D78EC24FFFC55
:101D2300ED34FFFD80EFD0E0FDD0E0FCE493A3C0F1
:101D3300E0E493C0E022C0E0C3E493960874019307
:101D43009618400FE4936670080874019366187040
:101D5300007019A3A3C3E49396087401939618A380
:101D6300A3400DD0E0D0E0D0E0021D29A3A3A3A39C
:101D7300A3A3D0E022C0E0C0F088F0E4936670082B
:101D83000874019366187000A8F0A3A3700BD0F039
:101D9300D0E0D0E0D0E0021D29A3A3D0F0D0E02210
:101DA40074F6121ABCEAFEEBFF8C088D09EE24349B
:101DB400F8E43FF9E8FCE9FD121ED7E0FAEE243717
:101DC400F582E43FF583E0F88508F0A4C885F00ABD
:101DD4008509F0A4250AF9EA28F8E439F97A257B7B
:101DE40000121955EA8C828D83F0FA131313541FD1
:101DF400F8EE28F8E43FF9E8245DF582E439F58348
:101E0400E0C0E074075AF8D0E0B800028004C313BD
:101E1400D8FCA2E05003EA8020EE2436F582E43FA9
:101E2400F583E0F5F0EA84A8F0EE28F8E43FF9E859
:101E34002438F582E439F583E0F97F03021B6874E2
:101E4400F5121ABCEAFEEBFFEE2434F582E43FF50A
:101E540083E0C0E0121ED7D0E0F08E828F83A3A36C
:101E6400A3A3A3E0FAA3E0FB8E828F83A3A3A3A37F
:101E7400A3A3A3E0FCA3E0FDECC39AF50AED9BF554
:101E84000BEE247FF508E43FF509850882F583E02D
:101E94006401702AEE2480F582E43FF583121C7AF3
:101EA400121EE174021219F6E960137CB07D04EE8F
:101EB400FAEFFB120E0E850882850983E4F0AC0A62
:101EC400AD0BEEFAEFFB121DA4E9F91229B97F0458
:101ED400021B68EE2435F582E43FF58322C082C0FC
:101EE40083851882851983E0F8A3E0F9C3EA9CEBA3
:101EF4009D5010C3EC98ED99401BC3EA98EB9950A0
:101F040014800EC3EA98EB994007C3EC98ED99400E
:101F140004790180027900D083D08222EAC39CFA3A
:101F2400EB9DFB2274ED121ABC900376E06408600A
:101F340005E06407702C9061C8E060269003A4E07B
:101F4400F874FF68601CE875F00AA4C8AAF02AF9BE
:101F540074A628FE740339FF8E828F83A3A3A3E0A3
:101F6400700579000220C1EE2468F50EE43FF50FF8
:101F7400906060E0850E82850F83F07510207511E6
:101F840005750800750900E5D914F50AE5D9540367
:101F9400F50B601FEE2482F50CE43FF50D74036528
:101FA4000B6059E50A6017EE2467F582E43FF58378
:101FB400E0700B793DEEFAEFFB120E3E80A4900523
:101FC4001BE064016023850C82850D83E060047A44
:101FD4000480027A00E50AC39AFA95E0FB120C9495
:101FE4008A088B09EA450970061210A2021F668549
:101FF4000C82850D83E070048A108B117A008014A2
:10200400E5D9C0E0EAF8E51028F582E43511F58356
:10201400D0E0F00AEAC3950A40E6850C82850D8378
:10202400E0602874FC250AF50A7810121C63AC0AD7
:10203400A90BEEFAEFFB120EEC74021219F6E9701A
:102044000AAA08AB091214B0021FB77403650B6027
:1020540054850A0C750D00780C121C63AC10AD117C
:10206400AA08AB09120EB074021219F6850E828505
:102074000F83E0F87480687005750C7F8002880C0B
:10208400E50CF50D780D121C67780B121C67A90A74
:10209400AC08AD099003A4E0FA7B00120ACC7402E8
:1020A4001219F68013900376E06408600BAC10AD4F
:1020B40011EEFAEFFB120F821210AE79017F0C02BF
:1020C4001B6874F3121ABC74FC1219E0EAFEEBFFED
:1020D4008909A2AFE433F508C2AFEE2463F50AE43C
:1020E4003FF50B8010AA0AAB0B120E681214B090C5
:1020F40004B7E004F0850A82850B83E0F8A3E0F9D5
:10210400E849602DE82402FAE439FBEA2402F50CDC
:10211400E43BF50D780C121C638A828B83E0FCA3EC
:10212400E0F9EEFAEFFB120E5C74021219F6E960A4
:10213400B49004B7E0604D9004B8E0F89004B7E0C0
:10214400C398500C74026509703A9004B9E0603485
:102154008E828F83A3A3A3A3E0851882851983129B
:1021640021987402121A2CE81221989004B6E028DF
:10217400F07402121A46AA18AB197901120B2090B6
:1021840004B7E4F0E508A2E092AF74041219F67FF4
:1021940006021B68F0A3E4F09004B7E0F822000004
:1021A4008521878522C622C0E074EB121BA8A2AF4A
:1021B400E433F508C2AF759B00906182E0A2E05061
:1021C40030E591A2E0502A7591FE740165217021D9
:1021D40012233E120FDC12232C121C761227637476
:1021E400041219F6E9640170057901121036121F00
:1021F40028906182E0A2E5505DE591A2E550577513
:1022040091DF900376E064076005E06408702F12A4
:10221400233E74016521703E120FDC12232C121C24
:102224007612276374041219F6E9640170057901C2
:102234001210367901EEFAEFFB1220C68018E06422
:102244000D7013900398E004F064287002E4F07AAF
:1022540000E0F91210B4906182E0A2E64003022388
:1022640001E591A2E640030223017591BF90037634
:10227400E064057008120FC4120FD08003120FCA55
:10228400752100121042E9900377F079001210369C
:10229400120D787A017B00900375E0F91214809096
:1022A4007803E06442705690051FE014F0704EC24B
:1022B400AF1222B800782AD0E0F618D0E0F6E59FF5
:1022C4005407F87005750DFF8003750D7FC4C0E0D9
:1022D4007829E6F50A08E6550DF50B740B780A1211
:1022E40019BED0E0250AF8906270E0A2E740F8E851
:1022F400C333906272F0906270E0D2E0F09061813A
:10230400E0A2E35009E5E9A2E3500375E9F7A3E08D
:10231400A2E75009E591A2E7500375917FE508A271
:10232400E092AF7F08021C078E828F83E0F8A3E05F
:10233400C82416F582E438F583229003A4E0F875E6
:10234400F00AA4C8AAF02AF974A628FE740339FF77
:1023540022C0E0C0D0C082C083906183E0A2E0507C
:1023640009E5BFA2E0500375BFFEE0A2E15009E514
:10237400BFA2E1500375BFFDE0A2E25009E5BFA290
:10238400E2500375BFFBE0A2E35009E5BFA2E350AE
:102394000375BFF7E0A2E45009E5BFA2E45003755A
:1023A400BFEFE0A2E55009E5BFA2E5500375BFDF2A
:1023B400E0A2E65009E5BFA2E6500375BFBFD08393
:1023C400D082D0D0D0E032C0E074F2121BA8E5A7CE
:1023D400A2E4500FE5A1A2E4500953A7EF75A1EFC1
:1023E40012241FE5A7A2E5500CE5A1A2E55006536F
:1023F400A7DF75A1DFE5A7A2E15009E5A1A2E1509D
:102404000375A1FDE5A7A2E2500CE5A1A2E25006E6
:1024140053A7FB75A1FB7F01021C0774F8121ABCB9
:10242400752101900376E0640670077A007B001240
:102434000FACA2AFE433FED2AF90037CE064017032
:10244400187A207B00900375E0F912159A7A207BA4
:1024540000900375E0F9121486906182E0D2E6F0F0
:1024640090051CE0602185C622801690037BE06401
:10247400017008E5C654F84405F5C653BEFC1221A4
:10248400A47401652160E4EEA2E092AF7F01021B17
:10249400680000008E238F24858228858327851871
:1024A40082851983E0CEA3E0CF852882852783EB3C
:1024B400C9EAC8EDCBECCA75F010C3E833C8E933F8
:1024C400C9EA33CAEB33CBC3EA9EF526EB9FF52565
:1024D400B35004AB25AA26EC33CCED33CDD5F0DADA
:1024E400AE23AF242274E9121ABC74FA1219E0EA7A
:1024F400FEEBFF8C088D09120FEEEAF8EBF9ECFA0B
:10250400EDFB8E828F831218DA900376E024F7C3F2
:1025140094055006751001022620120F228A0A8B98
:102524000BEA450B700302261D120FE28A0C8B0D79
:10253400120FE2EA650C7003EB650D60ECEEFCEF44
:10254400FDAA18AB19120FE8850A82850B83A3A391
:10255400780C1218A4908F48780C12187E85188273
:1025640085198378141218A4908F48781412187E51
:10257400780C79141216B7501F780C791412185667
:10258400908F24780C1216D74047850C10850D11B6
:10259400850E12850F138045908F248514108515A0
:1025A400118516128517137810790C1218567810A5
:1025B4001216D7501C751000751100751200751392
:1025C40001781079141218567810790C12181D809D
:1025D4000C751001751100751200751300740978DB
:1025E400101217FE908F28780C1218A47810790C0A
:1025F400121776900376E06408600AE064066005CA
:10260400E064057020908F2C78101216D750169025
:102614008F307810121830800C7510007511007509
:10262400120075130085088285098378101218B387
:1026340074061219F67F10021B6874F7121ABC1282
:10264400100090051AE064017010906245E4F0A354
:10265400F053F4F343FE0C5390F3120F9AE5C6546F
:10266400B84441F5C6E59E5447644170F8906185CD
:10267400740FF0900518E0F47002A3E0602C750864
:1026840001750900900518E078081219CDE508F4E1
:10269400FAA3E0600814600A14600C800DEA52800A
:1026A4008008EA52908003EA52A079007F02021B5C
:1026B4006874F7121ABCE9FEEAFF74016E700C7AB2
:1026C400807B00900375E0F9121480902AD8E4937B
:1026D400F46008E493F9120D5A800953C6B8E59ED4
:1026E400544770FA120FA090051AE06401700312A7
:1026F4000D90900518E0F47002A3E0602B750801BA
:10270400750900900518E078081219CDE508FAA3B8
:10271400E0600814600A14600C800DEA42808008AE
:10272400EA42908003EA42A0120F228A088B09A889
:1027340008A909E8496016E5E170FCE82414F5826B
:10274400E439F583E0F874FF68600288E174016F8E
:10275400700A7A01900375E0F91215100226B0741C
:10276400F1121ABC8A088B098C0A8D0B908F487859
:102774000812187E740F121A2C780C1218A4908F59
:1027840048780C12187E7808790C1216B7908F24AA
:1027940050107808790C12185678081216D740147D
:1027A400800E780C7908121856780C1216D750043B
:1027B4007901800279007F08021B6874ED121ABC4B
:1027C4008A088B098C0A8D0B908F48780812187E22
:1027D4007413121A2C780C1218A4908F48780C12C7
:1027E400187E780C79081216B740117808790C1203
:1027F4001856AA08AB09AC0AAD0B802275100075F7
:1028040011007512007513017810790C121856789E
:1028140010790812181DAA10AB11AC12AD137F0C5D
:10282400021B68908F4878081218A48A828B8378D8
:10283400081218917F04021B6874F5121ABC8C826A
:102844008D8378081218A48A828B83780812186AF8
:10285400122891C3E098F0A3E099122883401E90B7
:102864008F6C78081218A48A828B83780812184314
:102874008E828F83E02420F0A3E0344EF080A4F015
:102884008E828F83C3E09420A3E0944E22EA240432
:10289400F8E43BF9E8FEE9FF8C828D83A3A3A3A3AC
:1028A400E0F8A3E0F98E828F832274F5121ABCE952
:1028B400FE9004D2E0FAA3E0FBEE29F8E433F974C5
:1028C400B528F582748E39F583E02AF508A3E03B38
:1028D400F5097808121C63908F501218C2122498BC
:1028E40074021219F68A088B098C0A8D0B741078FD
:1028F400081217E5AA08AB097F04021B6874F112D9
:102904001ABC8A0C8B0D8C0E8D0F7411121A2C129A
:102914001C7A7411121A2CE02401F508A3E0340087
:10292400F509E4F50AF50B780C79081216F6908F80
:102934003C78081218A4780C79081216F6AA0CAB85
:102944000DAC0EAD0F12249874021219F68B09EA1D
:10295400450960047A0180027A00EC2AFCE43DFD1A
:102964007413121A2CE0F8A3E0F9E8FEE9FFECF87E
:10297400EDF97A717B0212195588088909E4F50A80
:10298400F50B8E828F8378081218B3ECF8EDF97A80
:10299400717B021219558A088B097405780812197B
:1029A400CD8E828F83A3A3A3A3E508F0A3E509F04A
:1029B4007F08021B68C082C083E9906000F0D08366
:1029C400D08222C0E0C0D0E8C0E0E9C0E0A9A8D22B
:1029D400AFC2C7751A00E9A2E7E433F8E9A2E792A7
:1029E400AFD0E0F9D0E0F8D0D0D0E032C0E0C0D031
:1029F400E8C0E0E9C0E0EAC0E0C082C083A2AFE47E
:102A040033FAD2AFA8C1E8C0E0900905E0F8740A2F
:102A140028F582E43408F583D0E0F0900904E0F866
:102A2400A3E0687006E595900907F0900905E004B5
:102A3400F0C394FA4002E4F0A3E4F0EAA2E092AF17
:102A4400D083D082D0E0FAD0E0F9D0E0F8D0D0D072
:102A5400E032C0E0C0D0E8C0E0E9C0E0EAC0E0C0D5
:102A640082C083A2AFE433FAD2AF900A02E0F8A3A3
:102A7400E0687008539AFBA374018022C2E9900AAB
:102A840002E0F8740128F0740828F582E43409F5AA
:102A940083E0F5C1900A02E0C394FA4002E4F080B6
:102AA4009AC2AF02000022C0E074F2121BA8A2AFC7
:102AB400E433FED2AF9010C4E0700512167E80039A
:102AC400121684758A00C2EBEEA2E092AF7F010277
:022AD4001C07DD
:102AD800FFFFFFFFFFFFFFFFC082C083E9901B05D8
:102AE800F0D083D08202013274F6121A50E99002B3
:102AF800E8F0900348E0F5087509007402780812B8
:102B080019CDAA08AB091214F89002E9123476908C
:102B180002E9123863606F900348E075F003A4FA85
:102B2800ABF01214F89003061234769003061238AC
:102B380063700B9002E91238341214FE8048900337
:102B4800061247777AFF7BFF1213607A0080198A92
:102B580008750900740278081219CD12427074FFC2
:102B6800122CA3E4F0A3F00A900348E0F8EAC39813
:102B780040DD79051209BE9002E8E0F91208AA7A48
:102B88003C7B0A120C3402431374F4121A508A085C
:102B98008B09EB548060479002E8E0F91214688AC8
:102BA8000A8B0BAE0AAF0BEE4F602A8E828F83E042
:102BB80064B0701A1209CAE960148E828F83A3A3C5
:102BC800A3A3E0F9EE2405FAE43FFB1209A0EEFA0C
:102BD800EFFB121456AA08E5096480FB80047A000A
:102BE8007B00022DC674F2121A5074FB1219E0EA27
:102BF800FEEBFFEE4F60457403121A2CEEF0A3EFC4
:102C0800F0851882851983ECF0A3EDF07402121A8E
:102C18002CE9F0AA18AB191208A4E9F50870757424
:102C280013121A2CE0F50AA3E0F50BE50A450B6030
:102C3800638E828F831231FFEE4F70057508028014
:102C4800537A067B001214F88A0C8B0DA80CA90D78
:102C5800E8497005750813803B88828983E4122C43
:102C6800A3EEF0A3EF122DBFE50AF0A3E50BF09059
:102C780002EC122DB89002EC6017E0FCA3E0800390
:102C8800EAFCEBFD8C828D83122DB870F38C828D5B
:102C980083123E8BA90874050249F7F0A31247591D
:102CA800A32274F2121A508908890C750D00740356
:102CB800780C1219CD850C0A850D0B9002EBF0905B
:102CC80002E9123C96122DB6602E1214FE7900808D
:102CD8001D890C750D007402780C1219CD9002E94B
:102CE80012412F8882F583A3A3E4F0A3F00990038F
:102CF80048E0F8E9C39840D9900348E0FA850AF01B
:102D0800A4CAA8F0850BF0A428FB1214F88A0C8B2F
:102D18000DAE0CAF0DEE4F7003022DAC900348E0E2
:102D2800FC850AF0A4CCA8F0850BF0A428FD790056
:102D38001214447C0080318D0C750D007403780CDE
:102D48001219CD8A828B83122DB188828983E4F08F
:102D5800122DBEA3A3F0A3F00DEDC3950840D8EE45
:102D6800250AFEEF350BFF0C900348E0F8ECC398FA
:102D780050288C0C750D007402780C1219CD900235
:102D8800E9122DB1E82402500109FAE9FB8A828B85
:102D980083EEF0A3EFF07D0080BFE5089002EBF032
:102DA8007900800279130249FA124133F922A3A368
:102DB800123838EA4B22A3124759A3A3A3227F044F
:102DC800021B22C082C0839002EC123863601C8808
:102DD800828983A3A3E06A7003A3E06B8882898356
:102DE80070E8A3A3A3A312383480047A007B0002FE
:102DF8002AE974F2121A5074FD1219E0EAFEEBFF88
:102E0800851882851983E4F0A3F07402121A2C74D1
:102E180001F01238607014120B6E1214F89002EF61
:102E28001234761238607003022F8C123576EE2435
:102E380004F50AE43FF50B850A82F583E024FE6079
:102E48003C24FC607424FE607E24FE7003022EDCA9
:102E580024FE7003022EE924FE7003022EF624FEDF
:102E68007003022F0324FE7003022F1024FC70034A
:102E7800022F3124FE7003022F49022F85120B6E98
:102E88009002F1EAF0A3EB122F981205F2E9600321
:102E9800022F859002F1121C7A8E828F83A3A3A33E
:102EA800A3A312477785088285098312383412094B
:102EB8008874021219F6022F85AC18AD19EEFAEFD4
:102EC800FB1209D0022F54AC18AD19EEFAEFFB1221
:102ED80009D68078AC18AD19EEFAEFFB1209DC8040
:102EE8006BAC18AD19EEFAEFFB1209E2805EAC1874
:102EF800AD19EEFAEFFB1209E88051AC18AD19EEE6
:102F0800FAEFFB1209EE80447402121A36880C8913
:102F18000D780C121C637402121A46EEFAEFFB12BB
:102F280009F474021219F68023AC18AD19EEFAEF01
:102F3800FB1209FAE9F870167402121A2CE4F080F0
:102F48003CAC18AD19EEFAEFFB120A00E9F8E8609C
:102F58002C8E828F83A3E064146022850A82850BFD
:102F680083E09002F1F08518828519831238349035
:102F780002F2123476E8A3122F981205ECEEFAEF5B
:102F8800FB12095E7402121A2CE0F974030249F765
:102F9800F07CF17D02850882850983123838227415
:102FA800E8121A5074FA1219E07404121A2CECF090
:102FB800A3EDF08A128B13EA2405F50EE43513F518
:102FC8000FEA2402F510E43513F511851082F58314
:102FD8001238341206E28A0A8B0B7508007C037DCE
:102FE8000079007AF17B02121444E50E2402F516EA
:102FF800E4350FF5177402121A36880C890D780C0F
:10300800121C63850E82850F83A3A3A3A3E0F50C8E
:10301800750D00780C121C63E50E2405F50CE435DB
:103028000FF50D780C121C63851682851783123BE9
:103038003B1208C274061219F68A0C8B0DE50C4572
:103048000D70030231C88020851882851983E088B5
:10305800828983F00508851882851983A3E0C0E07A
:10306800123209D0E0F00508E50A24FBFAE50B3432
:10307800FFFBC3E5089AE49B40030231C87E007F4A
:1030880000851282851383A3A3A3A3E0F509780919
:10309800121C67E4F514F5157814121C637514EE08
:1030A8007515027814121C639002EF121C7A7409C9
:1030B800121A2C121C7AE50A24F9F9AC0CAD0D850C
:1030C8001082851183123834120A2474091219F6F1
:1030D800E96003023169850E82850F83A3A3A3A348
:1030E800A3A3A3E0F89002EEE0687075E0F5148EF3
:1030F800157814121C63124774850E82850F83A3FA
:10310800A3A3A3A3A3A3A312383412143E740212D8
:1031180019F6E9604C9002F2123863703BE4F5143A
:103128007814121C637CFF7DFF7907851082851156
:103138008312383412099A74021219F61238697017
:1031480017850E82850F831249117404121A2C12E6
:103158004223123B6C0231FC850C82850D831231AF
:10316800FFA818A919881489157814121C63740407
:10317800121A2C121C7A85168285178312346C1247
:1031880008CE74041219F68A0C8B0DEE4F700302E8
:103198003045123209EE123214123B22EF12321469
:1031A800F8A3E03400F9E50C450D600302305088BF
:1031B80082898374FFF0050812320974FFF005084C
:1031C800E508601A1313543F12347C1205FEE960B7
:1031D800099002F21238341214B079008016850E64
:1031E80082850F831249117404121A2C1242231279
:1031F8003E8B790A023AF5A3A3A3A3E0FEA3E0FF5E
:1032080022A8089002F2E028123B2222F0050808C2
:103218009002F2E0282274E8121A5074FA1219E0A7
:103228007402121A2C1234767404121A2CECF0A3BD
:10323800EDF07402121A2CE02405123B0BE0F50C99
:10324800A3E0F50D7402121A2CE02402F510A3E095
:103258003400F511851082F5831238341206E275B0
:103268000800750900EA24FCFEEB34FFFF8008051E
:103278000CE50C7002050DA808C3EE98EF940050F9
:1032880003023428A818A919880E890F780E121C71
:1032980063851482851583A3A3A3A312477B121CFD
:1032A80063E5142405F50EE43515F50F780E121CA8
:1032B8006385148285158312346A1208C274061253
:1032C80019F68A0E8B0FEA450F7003023428EA2498
:1032D80004F516E4350FF517851682F583E0F50C2D
:1032E800A3E0F50D8518828519831247778A828BAA
:1032F80083A3A3A3E0F985108285118312383412C1
:1033080008B0E9F50960030234287402121A2C1275
:103318003B32F5097809121C67E4F512F5137812A7
:10332800121C637512EE7513027812121C63900258
:10333800EF121C7A7407121A2C121C7AEEF9AC0ED2
:10334800AD0F851082851183123834120A2474094E
:103358001219F6E9F5096003023428E508703FE41C
:10336800F50EF50F780E121C637CFF7DFF79098539
:10337800108285118312383412099A74021219F6D0
:10338800123B58700D7404121A2C12345F79110212
:10339800345C9002EEE024029002F2F08014900275
:1033A800F2E0FA9002EEE0790024025001096A493D
:1033B8007072A8089002EEE0FAE82AFAE43400FBFA
:1033C800EE9AEF9B405A851682851783E0C0E090FD
:1033D80002F312320ED0E0F00508851682851783B5
:1033E800A3E0C0E0089002F312320ED0E0F0050826
:1033F8009002EE12477B121C63124774A808123A17
:10340800FF12142C74021219F69002EEE02508F54A
:103418000874FF650C700474FF650D600302327751
:10342800E508601F9002F2E0F5F0E5088412347CAC
:10343800120604E960099002F31238341214B079C4
:10344800008011E509700375090A7404121A2C1218
:10345800345FA909023AF5123C9AE50CF0A3E50D90
:10346800F022A3A3124A06AA0CAB0D22A3A3EAF0EA
:10347800A3EBF0229002F1F07CF17D0285108285A9
:1034880011831238382274EC121A5074FC1219E0A5
:10349800123F9B7402121A4612382E1208C88A0C60
:1034A8008B0DEA450D7003023566123576A818A90A
:1034B80019881089117810121C637CFF7DFF790B25
:1034C80085088285098312383412099A7402121900
:1034D800F612366C700C850A82850B83123B6902E2
:1034E80035738E828F83A3A3A3A3E0F512781212FB
:1034F8001C67E4F512F5137812121C637512F17546
:1035080013027812121C637810121C637409121AC1
:103518002C121C7A7409121A2CE0F9AC0CAD0D852A
:103528000882850983123834120A2474091219F69C
:10353800E9FE70157CF17D028508828509831238C1
:103548003412060AE97009802074166E70027E0033
:103558009002F21238341214B0EE7004800B7E011F
:10356800850A82850B83123E88EEF9023E9DEE2481
:1035780002F508E43FF5092274EC121A5074FC12A3
:1035880019E0EAFEEBFF8C0E8D0FEE2405F508E43A
:103598003FF5097402121A46850882850983123894
:1035A800341208C88A0C8B0DEA450D700302365C8C
:1035B800EE2402F50AE43FF50BA818A9198810892A
:1035C800117810121C637CFF7DFF790D12382E12C2
:1035D800099A74021219F612366C700B85088285E6
:1035E8000983123B69807A8E828F83A3A3A3A3E009
:1035F800F5127812121C67850882850983A3A31225
:103608001C7A7512F17513027812121C6378101265
:103618001C637409121A2C121C7A7409121A2CE0F1
:10362800F912382A120A2474091219F6E9FE700FE1
:103638007CF17D0212382E120610E9700980207480
:10364800166E70027E009002F21238341214B0EE38
:103658007004800B7E01850882850983123E88EEFE
:10366800F9023E9D123873F510A3E0F511EA4511F1
:103678002274E8121A5074FE1219E08A168B178CFD
:10368800148D15EA2405F50CE43517F50DEA240226
:10369800F50EE43517F50F850E82F58312383412CE
:1036A80006E28A088B09750B007C037D0079007A95
:1036B800F17B02121444750A00E50814F51004247D
:1036C800FFF508E50934FFF50980549002F1E0FAA6
:1036D8009002EEE0F8EA28F8E43400F9E50898E505
:1036E8000999500D9002F1E0F8E510C3989002EEA8
:1036F800F0E0F5127513007812121C6312477490EB
:1037080002F2E02AFAA3E03400FB12142C7402122D
:1037180019F69002EEE0F89002F1E028F0050A852B
:103728000C82850D83A3A312413F400302380F90FA
:1037380002F1E0C39508E49509400302380FAE0A88
:10374800EE2EFEE433FF12384EAC18AD1912478F37
:10375800E439FB1208C88A128B13AC12AD13EC4D76
:10376800701B750B0112383E123E8C9002F2122D1E
:10377800B860031214B0A90B7402023AF7851682D6
:10378800851783A3A3A3A3E0F50B780B121C67E4AA
:10379800F512F5137812121C637512EE7513027880
:1037A80012121C639002EF121C7A7407121A2C1260
:1037B8001C7AA910850E82850F83123834120A24C8
:1037C80074091219F6E9F50B709B9002F21238632E
:1037D80060030236D3E4F512F5137812121C637CE9
:1037E800FF7DFF790F850E82850F83123834120909
:1037F8009A74021219F612386960030236D3123825
:103808003E123B6D0237807CF17D02850E82850F6A
:1038180083123834120616E96003023773790002FE
:103828003780AC0CAD0D850A82850B83123838229F
:10383800E0FAA3E0FB2212384EE0FAA3E0F9EA85A9
:10384800148285158322850C82850D83E02EF8A3CA
:10385800E03FF988828983229002EF124915E849EE
:1038680022123873F8A3E0F9E849229002F2EAF04C
:10387800A3EBF09002F2E02274E8121A5074FA12E4
:1038880019E07404121A2C1234768C168D177404ED
:10389800121A2CE02405F50EA3E03400F50F740489
:1038A800121A2CE02402123B0B1238341206E28A58
:1038B8000A8B0B7F007E00A818A919880889097847
:1038C80008121C63850E82850F83A3A3A3A3E0F5CA
:1038D800088E097808121C63E50E2405F508E435FE
:1038E8000FF5097808121C63850E82850F83A3A340
:1038F800123B3B1208C274061219F68A0C8B0D8013
:1039080029123B2CF00F123B2CF00F9002EE123EC6
:1039180077121C63124774EFF8123AFF12142C74D2
:10392800021219F69002EEE02FFFE50C450D700328
:103938000239BB851882851983123FADA3A3A3E082
:10394800F98514828515831238341208B0E9FEE52A
:103958000C2404F510E4350DF511EE7050740412C2
:103968001A2C123B32F5087808121C67E4F508F5A2
:10397800097808121C637508EE7509027808121C8C
:10398800639002EF121C7A7407121A2C121C7AE543
:103998000A24FAF9AC0CAD0D85148285158312380A
:1039A80034120A2474091219F6E9FE6039123B48E8
:1039B800123E8BEF7003023AE29002F2E0F5F0EF6C
:1039C800849002F1F07CF17D0285148285158312C2
:1039D800383412061CE960099002F31238341214C4
:1039E800B07900023AF58F08EF703BE4F512F51351
:1039F8007812121C637CFF7DFF791185148285156E
:103A08008312383412099A74021219F6123B58704C
:103A180009123B48123B6C023AF59002EEE024048E
:103A28009002F2F080359002EEE0F89002F2E0FAAF
:103A3800E82404FCE43400FDEC6A4D60030239C15B
:103A4800E50A24FAFAE50B34FFFBE50828F8E43424
:103A580000F9EA98EB9950030239C1851082851163
:103A680083E0C0E09002F3E02FF8A3E034008882FE
:103A7800F583D0E0F00F851082851183A3E0C0E0C4
:103A8800123B19D0E0F00F7402121A36880889091F
:103A98007808121C637402121A2C121C7A850E8282
:103AA800850F8312346A1208CE74041219F68A0C30
:103AB8008B0DEA450D70030239097402121A2CE0C5
:103AC800C0E0123B19D0E0F00F7402121A2CA3E0E8
:103AD800C0E0123B19D0E0023911EE70027E0A856F
:103AE8000E82850F83123B4E123E8BEEF97406123E
:103AF80019F67F10021B229002F3E028FAA3E034A3
:103B080000FB22F514A3E03400F515851482F58333
:103B180022123B1D229002F3E02FFAA3E034008A20
:103B280082F58322123B1D74FF22123C9AA3A3A3A1
:103B3800A3E022124A06850E82850F8312383822A6
:103B4800851082851183124915851682851783226F
:103B58009002F3EAF0A3EBF09002F3124915E8495A
:103B680022123E91E8F0A3E9F079112274EA121AC0
:103B78005074FE1219E08A088B098C128D13EA24FE
:103B880005FEE43509FFAC18AD198E828F83123813
:103B9800341208C88A0C8B0DEE2406F50EE43FF5A6
:103BA8000FEA450D7003023C6CE5082402F50AE4AF
:103BB8003509F50B8A828B83A3A3A3E0A2E55028DD
:103BC800851882851983123834120A1E8A108B11BF
:103BD800EA45116020791212382A851082851183EE
:103BE800121A4EE9F50C707F850E82850F83E0600E
:103BF8000979528011750C0E806D850882850983BC
:103C0800A3A3A3A3E0F9E4F508F5097808121C6357
:103C18008E828F83A3A3E0F5087808121C638E8236
:103C28008F83A3A3A3121C7A8E828F8312477712E5
:103C3800382E120A2A74061219F6E9F50C70118545
:103C48000E82850F83E0702D12382E1206228025F1
:103C58007416650C7011750C007418121A2C123C2D
:103C680096E48010750C0112490D85128285138324
:103C7800E8F0A3E9F0850E82850F83E060047900FF
:103C88008002A90C74021219F67F0E021B22123C44
:103C98009A22E0F8A3E0F58388822274EC121A5085
:103CA80074F71219E08A0A8B0B8C108D11EA24051F
:103CB800FEE4350BFF750C00AC18AD198E828F83AE
:103CC8001238341208C88A088B09EA4509700302B9
:103CD8003E62E50A2402F50A5002050B8A828B83AC
:103CE800A3A3A3E0A2E5502F851882851983123873
:103CF80034120A1E8A0C8B0DEA450D604F7912ACFE
:103D080008AD0912382E850C82850D83121A4EE9EA
:103D1800F50C6003023E65850A82850B83E0F50891
:103D2800A3E0F509AA08FB120A12EA4B70197AFFF8
:103D38007BFF120A12EA4B7003023E588A828B8379
:103D4800E508F0A3E509F07508008008750C0E0277
:103D58003E6505089002EBE0F8E508C398400302C9
:103D68003E5885080E750F007403780E1219CD8A17
:103D7800828B83A3A3E0250EF8A3E0350F12422C13
:103D880070D08E828F83123E801234768E828F831B
:103D9800A3A3123E80123474EE2404F508E43FF520
:103DA80009850882F583E088828983A3A3A3A3F009
:103DB800A3E4F0EE2405F50EE43FF50F850E82F539
:103DC80083123E80A3A3A3A312347475120775133C
:103DD800007812121C63EEFCEFFD7404121A3E12F6
:103DE800142C74021219F6E4F5127812121C638569
:103DF8000882850983E0FC7D00791712382E1209A4
:103E08009A74021219F67407121A2C12347674076F
:103E1800121A2CE0FA4B603D850882850983123E10
:103E280077121C63850E82850F8312477712142C34
:103E380074021219F67402121A4612382E12062843
:103E4800E960267407121A2C1238341214B080193B
:103E5800750C098008750C118003750C0112490D49
:103E6800851082851183123E8BA90C74098028E085
:103E7800F508750900780822123838888289832263
:103E8800123E91E8F0A3E9F022E0F8A3E0F9850EEC
:103E980082850F832274041219F67F0C021B227488
:103EA800EC121A50123F9B751000EE2402F50CE438
:103EB8003FF50D850C82F583123834120A128A08F0
:103EC8008B09EA45097003023F7F850A82850B83C7
:103ED800E064016003023F74AC08AD09AA0AAB0BA9
:103EE800120A06E9606E850882850983123201EE9E
:103EF8002406F50AE43FF50B8E828F83A3A3121CD8
:103F08007A8E828F83A3A3A3A3121C7A850A828543
:103F18000B83121C7A79188E828F83123FAD123868
:103F280034120A2A74061219F6E9F8741668700B26
:103F3800850A82850B83E4F0A38014E860128E82E0
:103F48008F83123834850E82850F83EAF0A3EBF055
:103F580088108018780E121C63AC08AD09EEFAEFD1
:103F6800FB120A0C74021219F6E9F510AA08AB093B
:103F7800120A18E510700E850C82850D83123834EC
:103F880012062E8009741665107003751000A910AA
:103F9800023EA2EAFEEBFF8C0E8D0FEE2405F50A19
:103FA800E43FF50B22124A06850C82850D832274A4
:103FB800EA121A507508007509007E007F00750A1C
:103FC80000EC2402F510E43DF5118035EC6508702D
:103FD80003ED6509600302406C88828983A3A3E02E
:103FE8006A7003A3E06B707C88828983A3A3A3A370
:103FF800124911EE28FEEF39FFEA28FAEB39FB05E2
:104008000A12413C503A850A0C750D007403780C6D
:104018001219CD85108285118312412F12422C600E
:104028001FE508450970A58C088D098882898312C7
:1040380031FF88828983A3A3E02EFAA3E03F80BEE4
:10404800E50AC39402500302412A75080075090065
:10405800EE4F6010EEFAEFFB1214AA8A0E8B0FEAED
:10406800450F7005790002412C750B000240FF8551
:104078000B0C750D007403780C1219CD8510828510
:104088001183E0250CF50CA3E0350DF50DE50C24A6
:1040980006F514E4350DF515851482F583124231C1
:1040A8006042E50C2404F512E4350DF513851282FF
:1040B800F583121C7AE50E2508FAE50F3509FB127F
:1040C800142C74021219F6851282851383E02508D0
:1040D800F508A3E03509F50985148285158312389A
:1040E800341214B0E50B600D7C087D007900AA0C31
:1040F800AB0D121444050BE50BC3950A500302409F
:104108007785108285118312491188828983A3A338
:10411800A3A3A3A3E50EF0A3E50F122DBFEEF0A312
:10412800EFF07901023C9112413322E0250CF8A30B
:10413800E0350D229002EBE0F8E50AC3982274F00E
:10414800121A508A0E8B0F8C0A8D0B750D00750C88
:104158000080507916EE2406F508E43FF5098E82B2
:104168008F83A3A3121C7A8E828F83A3A3A3A31287
:104178001C7A850882850983121C7A850E82850F30
:1041880083A3A3123834120A2A74061219F6E9F521
:104198000D7416650D706C850882850983E4F0A39B
:1041A800F0050C9002EBE0F8E50CC3985066AA0CF9
:1041B8008A08750900740378081219CD850A828562
:1041C8000B83A3A312427BE8FEE9FF8E828F831242
:1041D80042316040EA2401F508E43400F509900210
:1041E800EBE065087002E509601488828983A3A35F
:1041F800A3A3A3A3A3A3123863600302415B7918A6
:1042080002415DE9609B12490D7410121A2C12428A
:1042180023123E8BA90D7F08021B22E0FAA3E0F5CA
:10422800838A8222F988828983124A06EC4D227495
:10423800F6121A507C0080010C900348E0F8ECC399
:1042480098501E8C08750900740278081219CD124E
:104258004270E06A7003A3E06B70DDE8FAE9FB8066
:10426800047A007B000243139002E912427B8882A1
:10427800898322E02508F8A3E03509F92274F212AF
:104288001A508A088B09750A0080278E828F83A3AB
:10429800A3A3A3122DB660031214B07C087D007985
:1042A80000EEFAEFFB1214448E828F83E4F0A3F041
:1042B800050A12413C5027850A0C750D00740378D5
:1042C8000C1219CD850882850983A3A3E0250CFE6D
:1042D800A3E0350DFF8E828F8312386370AD850899
:1042E8008285098374FFF0A3F00249FA74F6121A62
:1042F800501209C48A828B83E582458370067A004E
:104308007B008007A3A3A3A31238347F02021B22D9
:1043180074E8121A5074FB1219E0E985188285199D
:1043280083F08A168B17ECFEEDFF7510008E828FD6
:1043380083A3A3A3E0A2E4502D741D121A2C1238F3
:1043480034120A1E8A828B83E582458370030247F2
:104358004F790AEEFCEFFDAA16AB17121A4EE9F5D3
:10436800106003024752741F121A2CE0F508A3E0EC
:10437800F5097421121A2CE0F50AA3E0F50B742351
:10438800121A2CE0F50EA3E0F50F8E828F83E064FD
:104398000260030246F0A312491185088285098349
:1043A800A3858212858313EE2406F50CE43FF50DF0
:1043B8008882898312478FF514E439F51578141229
:1043C8001CED010000280128F24307000228B74429
:1043D800032825440029E645012911460229B2454A
:1043E8000329E64504298A46F046E50E450F600391
:1043F8000246EB850C82850D83124911E8FAE9FB28
:104408008A828B83E0850A82850B8312479A121C65
:10441800638A828B83A3E0FCA3E0024674E50E4521
:104428000F60030246EB850A82850B837401F01244
:104438004784850882850983F07C007D008E828F01
:1044480083A3A3A3A3E02401FAA3E03400FB12088A
:10445800C8EA4B60408A828B83E02402F8850A828E
:10446800850B83E028F0EA2404F8E43BF988828984
:1044780083E08512828513831247A812479A121C7B
:10448800638A828B83A3124777E5082403FAE4350D
:1044980009FB024679850A82850B83E02404F07CB7
:1044A800047D007900AA12AB13121444024752E5A6
:1044B8000E450F60030246EB124784FEA3E0FF851A
:1044C8000A82850B837404F0EE850882850983F0DF
:1044D800EF851282851383F07403121A46EEFAEF01
:1044E800FB1208C88A0C8B0DEA450D70030245952E
:1044F8008A828B83A3A31231FF7401121A36880EA5
:10450800890F780E121C637405121A2C121C7A7CFF
:10451800FF7DFF1208CE74041219F68B0FEA450FBF
:104528007033850C82850D8312477B121C63850CC2
:1045380082850D83A3121C7A7C027D007AA47B8F6E
:104548001206D074041219F6E9700A7401121A2CB2
:1045580074FFF0A3F08E828F83E064027039750CCB
:1045680002750D00780C121C638E828F83A312478C
:1045780077E5082404FAE43509FB12142C740212B6
:1045880019F6850A82850B83E024028009740112DA
:104598001A2CEEF0A3EFF07401121A2C124769746A
:1045A80001121A2C1247600246E5E50E450F60031A
:1045B8000246EB850C82850D831249FFAA16AB17BC
:1045C800121378850A82850B837402F08508828528
:1045D8000983EAF0851282851383EB0246E8E50E2B
:1045E800450F60030246EB124784F8A3E0F9850AF9
:1045F80082850B837402F0E8850882850983F0E9D7
:104608008512828513830246E8850C82850D831204
:104618003834121426EAFAF8C3950EE4950F405C74
:10462800E8650E450F70047A008021851882851987
:1046380083E0FCE50E2CFCE4350FFDC3EC98ED940B
:10464800005003E08005E50ECAC39AFAEA850A829B
:10465800850B83F08A0A750B00780A121C63850C97
:1046680082850D83E0250EFCA3E0350FFDAA08AB7B
:104678000912142C74021219F60247527510070217
:104688004752E50E450F705B850C82850D831249F4
:1046980011850A82850B837407F088828983124703
:1046A80061124759E0851282851383F0E82402FAE3
:1046B800E439FB8A828B831247698A828B8312478B
:1046C80060A3A3122DBE12476EF0E82405F850012E
:1046D800098882898312476EA31247A8A3A3A3A3BC
:1046E800F0806775100B8062741D121A2C12383412
:1046F8001209C48A828B83E5824583604A12491174
:10470800880C890DE8450D603E7425121A2CE0F5D9
:10471800107810121C67780E121C63780A121C633A
:104728007808121C637407121A2CE0F9EEFCEFFDEE
:10473800AA16AB17850C82850D83121A4E740712C0
:1047480019F6E9F510800375100EA9107405023AE0
:10475800F7F088828983A322A3E0850882850983EC
:10476800221247AFF0221247AFA3A3229002EF1202
:104778004A0622E0F50E750F00780E22850C828518
:104788000D83123C9AE022E0FAA3E0F8E4C8F9EAC3
:104798002822F08A828B83E0F50A750B00780A22BA
:1047A8001247591247AF22E0850882850983A3A3DF
:1047B8002274EE121A5074FE1219E08A088B09EC62
:1047C800FEEDFF890AAC18AD19EEFAEFFB1208C826
:1047D8008A0C8B0DEA450D70030248A18518828565
:1047E80019831238341209C48A828B83E58245837F
:1047F800700302489CA3A3124911880E890FE8454B
:104808000F700302489C7414121A2CE0F510A3E0F0
:10481800F511E50AF50B780B121C677419121A2C9E
:10482800121C7A7810121C63741B121A2CE0F9AC53
:104838000CAD0DAA08AB09850E82850F83121A4E9E
:1048480074051219F6E9F50B705274FE650A604C8E
:10485800850C82850D83E0640270411248B0FAA38A
:10486800E0F9EAF87402687003742969702E8510FB
:104878008285118312478FF50CE439F50D780C12F7
:104888001C63EEFCEFFDAA08AB09120A427402127F
:1048980019F68008750B0E8003750B01A90B7402BD
:1048A8001219F67F0A021B22A312491588828983EE
:1048B800E02274F6121A5074FE1219E0740C121ADF
:1048C8002C124911E8851882851983F07401121A8F
:1048D8002CE9F0E4F508F5097808121C637508025C
:1048E8007808121C637404121A3688088909780833
:1048F800121C6379FE120A2A74061219F67402123F
:1049080019F60243138E828F8312491522E0F8A309
:10491800E0F92274F7121A50EAFEEBFF89089003B7
:1049280006124777121378EA5402600BA908EEFAC8
:10493800EFFB1208BC800279017F01021B2274F28E
:10494800121A5074FE1219E0EAFEEBFF890A74018C
:10495800650A60147402650A60030249F579011258
:104968000C52E960030249F5EEFAEFFB120A12EA6B
:104978004B6003120A18A818A91988088909780829
:10498800121C637508027509007808121C63750803
:104998009E75098F7808121C637CFF7DFF7A017B66
:1049A800001208C274061219F68038850882850933
:1049B80083A3A3A3A3A3A31249FFEEFAEFFB121349
:1049C80060E4F50CF50D780C121C637402121A2CB5
:1049D800121C7A7CFF7DFFAA08AB091208CE74046A
:1049E8001219F68A088B09E508450970BE74021287
:1049F80019F67F06021B22123C9A124A0622E0FC94
:104A0800A3E0FD2274F4121A508A088B09ECFEED1B
:104A1800FF901B05E0F4604B7A097B00121450EA02
:104A28004B60408A828B8374B1F0A3E4124A6EF023
:104A38008A828B83A3A3E508F0A3E509124A6EA333
:104A4800EEF0A3EFF0740C121A2C1249118A828B23
:104A580083A3A3A3A3A3A3A3123E8B901B05E0F9F2
:104A680012145C022DC6F08A828B83A3A3A3A3220F
:104A780074F0121A5074FA1219E08909ECFEEDFF6D
:104A88007508008A0A8B0B780A121CA70004109E6E
:104A98004CBB4AD94AF34A0B4B294B414B644B7CDC
:104AA8004B904BBA4B354C464C5D4C784C9E4C9ECB
:104AB8004CD04B740165096003024C998E828F8338
:104AC800E0F8C394034003024C99E8901B28024C79
:104AD80075740265096003024C998E828F831254A3
:104AE8004A901B29E8F0A3E9024C75740165096036
:104AF80003024C99124CCB4003024C99E8900724CE
:104B0800024C75740165096003024C998E828F838B
:104B1800E0F8C394054003024C99E8900725024C3D
:104B280075740165096003024C99124CCB4003026D
:104B38004C99E8900726024C7574106509600302C9
:104B48004C99750A10750B00780A121C637A277B3A
:104B58000712142C74021219F6024CBF740165096D
:104B68006003024C99124CCB4003024C99E8900721
:104B780037024C75740165096003024C998E828F67
:104B880083E0901B2C024C75740465096003024C89
:104B9800998E828F83780C1218A4908F50780C12FB
:104BA80016D75003024C99900739780C1218B302A3
:104BB8004CBFE96003024C99120868E970051213AA
:104BC8001E80559007CC8061740765096003024C0C
:104BD80099750A06750B00780A121C638E828F83FA
:104BE800A3AC82AD837402121A3E121432740212FC
:104BF80019F67C007D00AA18AB198E828F83E0F924
:104C08001212C4E9FEC3940A4003024CBC1208689D
:104C1800E9700CEEF91213247950121570806D7436
:104C2800CD2EF582E43407F5837401804074016564
:104C380009705E124CCB5059E8900738802F7401E8
:104C48006509704D8E828F83E0F8C3940A5042E85C
:104C5800901B2B80187401650970368E828F83E053
:104C6800F874F928C3940A5028E8901B2DF080475F
:104C780074016509701B9007CBE0F88E828F83E082
:104C88009007CBF0E87030E06401702B12131280AB
:104C9800267508188021C3EA9427EB9400501574F0
:104CA800026509700F8E828F831260221206E8E96E
:104CB800F5088003750802A90874061219F67F081A
:104CC800021B228E828F83E0F8C3940222A90880F7
:104CD800031219F67F04021B2274F0121A5074B1E1
:104CE8001219E08C0A8D0B908EEC7420121A4674FF
:104CF800061218F37420121A461212C4E9FF745FE0
:104D0800121A2CE0F509EFC3940A4003024E6375AA
:104D1800F006EFA4F5087441121A467A0E7420259D
:104D280008F912156AE97009744D121A2CE0FE8010
:104D3800027E00901B28E064027005750E01800356
:104D4800750E0074086509700474228002742125A8
:104D580008F50D7C1B7D0079007426121A3E12148A
:104D6800447426121A467A1BA90D12156AE9702D89
:104D78007440121A2CE024F9C3940A5020E50EF569
:104D88000D780D121C677427121A46EEA2E0E43360
:104D9800F9AA0AAB0B12078A74011219F67C147D62
:104DA800007900740C121A3E121444740C121A463C
:104DB8007A1074242508F912156AE970347C107980
:104DC800FF740C121A3E1214A4E97025741C121AEE
:104DD8002CAC82AD837A0474252508F912156A74FF
:104DE8000C121A46EEA2E0E433F9AA0AAB0B12073A
:104DF80072AC18AD197A0C74702FF912156AE97033
:104E080049AA18AB191212FA7F00EF75F003A4F83B
:104E1800A9F0851882851983E58228F8E58312555B
:104E2800FE1257DF601D88828983A3A3E0F50E7503
:104E38000F00780E121C63AA0AAB0B120A30740218
:104E48001219F60FEFC3940440C0EEA2E1500C9083
:104E58000723E0F9AA0AAB0B120A36740465097035
:104E680028901B28E0640270207800900737E060E3
:104E7800027801900724E060057404488001E8FE88
:104E8800EEF9AA0AAB0B12083E7900744F024CC324
:104E980074F7121A50120868E9704F9007CCE06452
:104EA80001701512131E9007CCE4F07C0AFDF97A04
:104EB800CD7B07121444802A750800A80874CD28F1
:104EC800FEE43407FF8E828F83E06401700BA9082B
:104ED8001213248E828F83E4F00508E508C3940A30
:104EE80040D9795012157012131202591774F01222
:104EF8001A5074F01219E0EAFEEBFF8C088D097560
:104F08000A0AE9600C14600914603B14607D024FC2
:104F1800EB12130CE9F50AC3940A4003024FEBE5C0
:104F28000845097003024FEB750C06750D00780CE7
:104F3800121C63EEFCEFFDAA08AB0912142C7402D4
:104F48001219F6024FEB750C00750E06750F0078F6
:104F58000E121C63EEFCEFFDE50C75F00EA4F8A92B
:104F6800F0744528FA740739FB12143E74021219BA
:104F7800F6E9700B050CE50CC3940A506680CA85E7
:104F88000C0AE50AC3940A505A8049750C00AC18FB
:104F9800AD197A1075F006E50CA42423F912156AE8
:104FA800E9701C7C1079FFAA18AB191214A4E970D7
:104FB8000EEEFCEFFDAA18AB1912074EE9600B05BF
:104FC8000CE50CC3940A501B80C4850C0AE50AC37F
:104FD800940A500FE50845096009AA08AB09A90A0F
:104FE800121306A90A7410024CC374F4121A5089D9
:104FF8000975081574FF6A700374FF6B70277E00CB
:10500800AC097A027B00EEF91212E8E96003750830
:10501800000EEEC3940A40E8E50960537A367B1324
:10502800120C76804A120C468A0A8B0BAE0AAF0B1A
:10503800EE4F60387C007D00EE2405FAE43FFB8EDD
:10504800828F83A3A3A3A3E0F91212C4E9F9C3943E
:105058000A500CAC097A027B001212E8750800E5C8
:1050680009600CEEFAEFFB12133680037508140280
:105078004CD574F2121A50ECFEEDFF750815740E3B
:10508800121A2CE0F50AA3E0F50B74FF6A7003749A
:10509800FF6B7021750900AC0AAD0BEEFAEFFBA9A6
:1050A800091212EEE960037508000509E509C394C1
:1050B8000A503F80E2120C468A828B83E582458340
:1050C800602D7C007D00E5822405FAE43583FBA38E
:1050D800A3A3A3E0F91212C4E9F9C3940A5013ACCC
:1050E8000AAD0BEEFAEFFB1212EE7508008003759D
:1050F8000814A908025E1AC082C08390073DEAF02E
:10510800A3EBF0900723E0FC7D007A267B001206D3
:10511800E8900723E0F91209A6025CC274EC121A9F
:10512800508A088B09E97E0070387808121C63746D
:1051380016121A2C780C1218A4908F507810121886
:10514800A4780C7910121776AA10AB11AC12AD1313
:1051580012078474021219F6E9FE60097901AA0897
:10516800AB0912077EEEF97F0C021B2274EE121AAD
:105178005074EC1219E08A088B09EA240CF510E443
:105188003509F5118A828B83A385820C85830DEA04
:105198002405F50EE43509F50FEA2409F50AE43586
:1051A80009F50BEA2403FEE43509FF8A828B83A301
:1051B800A3E024FA700302543824FD700302535804
:1051C80014700302525214601024FD700302533B02
:1051D80014700302539002543E1260286044E0F5B4
:1051E80083888212544A880C890DE8450D603385FE
:1051F8001082851183E0F50E780E121C67EA240BE5
:10520800F582E43509F583E0F912601C0A0A0AEF11
:10521800FB850C82850D83121A4E74011219F60251
:10522800543E850A82850B83121C7A90073912181E
:10523800C212078474021219F6E9700302543E7907
:1052480001850A82850B83025408750A00850C8241
:10525800850D83E06003025308850E82850F83E085
:10526800A2E040030253089007D712602B600302A4
:1052780053087C0E7D007900AA18AB1912144485D6
:105288001082851183125C8DEA4B6010750A0675D1
:105298000B00780A121C63EA2410801B125C891226
:1052A8000C46EA4B700302543E750A06750B0078EB
:1052B8000A121C63EA2405FCE43BFD7402121A3E40
:1052C80012142C74021219F6850E82850F83E0A23F
:1052D800E25004D2F08002C2F0A2F0E433F8740C79
:1052E800121A2C125E2D121300E970117A027B003B
:1052F800900723E0F91214807900025440750A15CA
:10530800126028700302543E12545F700302543E28
:10531800850C82850D83E0FC7901125450121A4ED7
:10532800E50A700302543EFC7903125C89125C4959
:10533800025433126028700302543E12545F700303
:1053480002543E850C82850D83E0FC7902025430BC
:105358007C007D00EA2404FAE43509FB8E828F8301
:10536800E0F91212C4E9F8C3940A400302543EE576
:1053780008240AFCE43509FD7A0475F006E8A4243B
:1053880025F912156402543E125C89900738E060D2
:1053980007901B2BE0F9806B901B28E070047905BF
:1053A8008061120C468A0C8B0DA80CA90DE8497077
:1053B8000302543EE82404F50CE439F50D8508820F
:1053C800850983A3A3A3A3A3A3A3E0A2E0503985DF
:1053D8000C82850D83E0F508602E850A82850B8393
:1053E800A3E054027022740E121A46E82405FAE467
:1053F80039FBA9081212C4E9700E79038E828F83D3
:10540800125C8D12077E802EAC0EAD0F850C828546
:105418000D83E0F9125C891213421260286017129A
:10542800545F60127C007900125450121A4E8006A4
:10543800125C891212BE790174141219F67F0A02DD
:105448001B22E0F8A3E0F9228E828F83E0FAA3E022
:10545800FB888285098322125C57F98909E8450986
:105468002274F5121A5074F21219E0EAFE8C0A75C9
:10547800F006E9A42420F508AC18AD197A0EF91243
:10548800156AE970467C0679FFAA18AB191214A4AC
:10549800E97038740C121A2C125C8DEAF8E50A606F
:1054A80005EEC8488004EEF4C858F8EA687001EBC5
:1054B8006015740C121A2CE8F0A3E4F0AC18AD19BE
:1054C8007A0EA908121564790180027900740E1207
:1054D80019F67F03021B2274F2121A5074E612198D
:1054E800E0890A8A088B09ECFEEDFF740C121A4653
:1054F8007A0E75F006E9A42420F912156AE960030A
:105508000255C47C0679FF740C121A3E1214A4E9E1
:1055180060030255C47470250AF50BAC18AD197AEE
:105528000CF912156AE960030255C0AA18AB1912E2
:1055380012FAE5084509701D7C0C7900AA18AB1908
:105548001214A4E970727C0C7D007900AA18AB19BA
:105558001214448051AC18AD19AA08AB091212F400
:105568008A0C8B0DA80CA90DE8497022EE4F604CEF
:10557800AC18AD197A007B001212F4EAF8EBF9EADC
:105588004B603988828983E508F0A3E509F0125653
:105598003AFAEE6A7001EF601FEEF04F70088882E9
:1055A8008983E4F0A3F0AA18AB191212FAAC18AD6B
:1055B800197A0CA90B121564790180027900741A02
:1055C800025E1774F7121A507E00EE75F003A4F805
:1055D800A9F0EC28F8ED1255FEE06A7003A3E06B21
:1055E8007006E8FAE9FB800B0EEEC3940440DB7A00
:1055F800007B0002591739F9888289832274F712CF
:105608001A507C00EC75F003A4F8A9F0EA28F8EB2E
:105618001255FEE0F4FEA3E0F4FF88828983EEF0E1
:10562800A3EFF012563AF4F00CECC3940440D50200
:105638005917E82402F582E439F583E02274F4125C
:105648001A5074F41219E0EAFEEBFF8C088D0990E9
:1056580007D712602B704FEE4F70030257BEEC4510
:105668000970030257BE12130CE9901B2EF0C39465
:105678000A4033750B007C0679FFE50B75F00EA424
:10568800FAABF0743F2AFA74073BFB1214A4E960E2
:105698000302571F050BE50BC3940A40D9750A0A84
:1056A800E50A901B2EF0901B2EE0C3940A400302DB
:1056B80057BE75F006E0A4FB9007D712602B705C0C
:1056C800EEFCEFFD7A0E74202BF91215647C0C7D2C
:1056D8000079FFAA18AB19121444AC18AD197A0C4A
:1056E800901B2EE02470F9121564750A0E750B00D4
:1056F800780A121C63EEFCEFFD901B2EE01258771F
:1057080012142C74021219F69007D7E508F0A3E5D5
:1057180009F079000257C0850B0A8084E0C8240686
:105728001257D960197A1B74212BF9121564125774
:10573800C52406F582E438F583E4F0A380D3125734
:10574800C5240A1257D960107A1B74222BF9121536
:10575800641257C5240A80DB1257C5240C1257D986
:1057680060107A1074232BF91215641257C5240C93
:1057780080C11257CE1257D960307A1074242BF991
:105788001215641257CEF582E438F583E02410FC34
:10579800A3E03400FD7A0475F006901B2EE0A424E3
:1057A80025F91215641257CE80899007CBE0600363
:1057B80012134E12133C7901740C024CD99007D77E
:1057C800E0F8A3E0C8229007D7E0F8A3E0C82408CF
:1057D80022F582E438F583126022EC4D2274F4122B
:1057E8001A5074F21219E0EAFEEBFFE9C3940A506A
:1057F80004EE4F700479028034AC18AD197A0E7536
:10580800F006E9A42420F912156AE9F508701C7558
:105818000A06750B00780A121C637402121A46EE07
:10582800FAEFFB12142C74021219F6A908740E026E
:105838004CD974F4121A50EAFEEBFF750800750A89
:1058480006750B00780A121C63EEFCEFFDE50812E2
:10585800587712143E74021219F6E96004A90880F8
:105868000B0508E508C3940A40D4790A024CDC7594
:10587800F00EA4F8A9F0743F28FA740739FB2274D3
:10588800F7121A50750800E50875F00EA4F8A9F08B
:10589800743F28FE740739FFEEFCEFFD7A0E75F0B1
:1058A80006E508A42420F912156AE960297C067D1A
:1058B8000079FFEEFAEFFB1214447C067D0079FFB5
:1058C800EE2CFAE43FFB121444EE240CF582E43F7C
:1058D800F583E4F0A3F00508E508C3940A40A8900E
:1058E80007CBE0600312134E12133C802274F712A8
:1058F8001A507E007F007C06EF12587774FFF91269
:1059080014A4E970010E0FEFC3940A40E9EEF97F81
:1059180001021B2274F7121A507E00EEF9121324AA
:10592800E9F90EEEC3940A5003E960EF80E174F3DD
:10593800121A5074CB1219E08908901B2EE06508E2
:10594800701B7A017B00900723E0F91214867A0213
:105958007B00900723E0F912148612135A901B2F2C
:10596800E0650870127A047B00900723E0F91214AE
:1059780086901B2F740AF075F006E508A4FF7420C2
:105988002FFE7427121A467A0EEEF912156AE9608C
:1059980003025A587C0679FF7427121A3E1214A47F
:1059A800E96003025A587C0E7D0079FF7427121AA9
:1059B8003E1214447C1B7D0079FF740C121A3E12AF
:1059C80014447C0C7D0079FFAA18AB191214447496
:1059D80027121A467A0EEEF9121564E9FE740C12B3
:1059E8001A467A1B74212FF9121564E9F509740C0B
:1059F800121A467A1B74222FF9121564E9F50A74F3
:105A08000C121A467A1074232FF9121564E9F50B53
:105A1800740C121A467A1074242FF9121564E9F5D9
:105A28000C740C121A467A0474252FF9121564E9BD
:105A3800FFAC18AD197A0C74702508F9121564E9D1
:105A4800F8E509450A450B450C4F48CE4EFE800245
:105A58007E00EEF974351219F67F05021B2274F7E1
:105A6800121A50E9900723F01213127A307B1B1296
:105A7800089202591774F2121A5074F21219E0EAD5
:105A8800FEEBFF54807003025B42900723E0F9129B
:105A980014688A088B09EA45097003025B3A7A019F
:105AA800E5082405F50AE43509F50BE5082404F8AA
:105AB800E43509F9880C890D8508828B83E0245028
:105AC800603614600624E16058805D88828983E02E
:105AD80070598508828B83A3A3A3A3A3A3A3121C35
:105AE8007A12601C8508828B83A3A3125C8D121224
:105AF800D074021219F6803388828983E0641E709C
:105B08000F79008508828B83A3A3125C8D1212CAB9
:105B1800850C82850D83E0F9AA0AAB0B1209A080D7
:105B28000AAA081212E2E9FAEA6007AA08AB0912FF
